{
  "_format": "hh-sol-artifact-1",
  "contractName": "CustomERC20Builder",
  "sourceName": "contracts/CustomERC20Builder.sol",
  "abi": [
    {
      "inputs": [],
      "stateMutability": "nonpayable",
      "type": "constructor"
    },
    {
      "anonymous": false,
      "inputs": [
        {
          "indexed": true,
          "internalType": "address",
          "name": "previousOwner",
          "type": "address"
        },
        {
          "indexed": true,
          "internalType": "address",
          "name": "newOwner",
          "type": "address"
        }
      ],
      "name": "OwnershipTransferred",
      "type": "event"
    },
    {
      "anonymous": false,
      "inputs": [
        {
          "indexed": false,
          "internalType": "address",
          "name": "builderAddress",
          "type": "address"
        },
        {
          "indexed": false,
          "internalType": "address",
          "name": "tokenAddress",
          "type": "address"
        }
      ],
      "name": "TokenDeployment",
      "type": "event"
    },
    {
      "stateMutability": "payable",
      "type": "fallback"
    },
    {
      "inputs": [
        {
          "internalType": "address",
          "name": "_tokenOwner",
          "type": "address"
        },
        {
          "internalType": "uint256",
          "name": "_initialSupply",
          "type": "uint256"
        },
        {
          "internalType": "string",
          "name": "_name",
          "type": "string"
        },
        {
          "internalType": "string",
          "name": "_symbol",
          "type": "string"
        },
        {
          "internalType": "uint8",
          "name": "_decimals",
          "type": "uint8"
        }
      ],
      "name": "buildERC20",
      "outputs": [],
      "stateMutability": "payable",
      "type": "function"
    },
    {
      "inputs": [],
      "name": "getBalance",
      "outputs": [
        {
          "internalType": "uint256",
          "name": "",
          "type": "uint256"
        }
      ],
      "stateMutability": "view",
      "type": "function"
    },
    {
      "inputs": [],
      "name": "owner",
      "outputs": [
        {
          "internalType": "address",
          "name": "",
          "type": "address"
        }
      ],
      "stateMutability": "view",
      "type": "function"
    },
    {
      "inputs": [],
      "name": "price",
      "outputs": [
        {
          "internalType": "uint256",
          "name": "",
          "type": "uint256"
        }
      ],
      "stateMutability": "view",
      "type": "function"
    },
    {
      "inputs": [],
      "name": "renounceOwnership",
      "outputs": [],
      "stateMutability": "nonpayable",
      "type": "function"
    },
    {
      "inputs": [
        {
          "internalType": "uint256",
          "name": "_price",
          "type": "uint256"
        }
      ],
      "name": "setPrice",
      "outputs": [],
      "stateMutability": "nonpayable",
      "type": "function"
    },
    {
      "inputs": [
        {
          "internalType": "address",
          "name": "newOwner",
          "type": "address"
        }
      ],
      "name": "transferOwnership",
      "outputs": [],
      "stateMutability": "nonpayable",
      "type": "function"
    },
    {
      "inputs": [],
      "name": "withdraw",
      "outputs": [],
      "stateMutability": "nonpayable",
      "type": "function"
    },
    {
      "stateMutability": "payable",
      "type": "receive"
    }
  ],
  "bytecode": "0x608060405234801561001057600080fd5b5061002d61002261004060201b60201c565b61004860201b60201c565b66038d7ea4c6800060018190555061010c565b600033905090565b60008060009054906101000a900473ffffffffffffffffffffffffffffffffffffffff169050816000806101000a81548173ffffffffffffffffffffffffffffffffffffffff021916908373ffffffffffffffffffffffffffffffffffffffff1602179055508173ffffffffffffffffffffffffffffffffffffffff168173ffffffffffffffffffffffffffffffffffffffff167f8be0079c531659141344cd1fd0a4f28419497f9722a3daafe3b4186f6b6457e060405160405180910390a35050565b6131938061011b6000396000f3fe6080604052600436106200008b5760003560e01c806391b7f5ed116200005557806391b7f5ed1462000129578063a035b1fe1462000157578063cef088791462000187578063f2fde38b14620001a75762000093565b806312065fe014620000955780633ccfd60b14620000c5578063715018a614620000df5780638da5cb5b14620000f95762000093565b366200009357005b005b348015620000a257600080fd5b50620000ad620001d5565b604051620000bc91906200073e565b60405180910390f35b348015620000d257600080fd5b50620000dd620001dd565b005b348015620000ec57600080fd5b50620000f762000322565b005b3480156200010657600080fd5b5062000111620003b3565b604051620001209190620007a0565b60405180910390f35b3480156200013657600080fd5b506200015560048036038101906200014f9190620007f8565b620003dc565b005b3480156200016457600080fd5b506200016f62000469565b6040516200017e91906200073e565b60405180910390f35b620001a560048036038101906200019f919062000907565b6200046f565b005b348015620001b457600080fd5b50620001d36004803603810190620001cd9190620009d6565b62000545565b005b600047905090565b620001e762000649565b73ffffffffffffffffffffffffffffffffffffffff1662000207620003b3565b73ffffffffffffffffffffffffffffffffffffffff161462000260576040517f08c379a0000000000000000000000000000000000000000000000000000000008152600401620002579062000a69565b60405180910390fd5b6000806200026d620003b3565b73ffffffffffffffffffffffffffffffffffffffff1647604051620002929062000ac0565b60006040518083038185875af1925050503d8060008114620002d1576040519150601f19603f3d011682016040523d82523d6000602084013e620002d6565b606091505b5091509150816200031e576040517f08c379a0000000000000000000000000000000000000000000000000000000008152600401620003159062000b27565b60405180910390fd5b5050565b6200032c62000649565b73ffffffffffffffffffffffffffffffffffffffff166200034c620003b3565b73ffffffffffffffffffffffffffffffffffffffff1614620003a5576040517f08c379a00000000000000000000000000000000000000000000000000000000081526004016200039c9062000a69565b60405180910390fd5b620003b1600062000651565b565b60008060009054906101000a900473ffffffffffffffffffffffffffffffffffffffff16905090565b620003e662000649565b73ffffffffffffffffffffffffffffffffffffffff1662000406620003b3565b73ffffffffffffffffffffffffffffffffffffffff16146200045f576040517f08c379a0000000000000000000000000000000000000000000000000000000008152600401620004569062000a69565b60405180910390fd5b8060018190555050565b60015481565b600154341015620004b7576040517f08c379a0000000000000000000000000000000000000000000000000000000008152600401620004ae9062000b99565b60405180910390fd5b600087878787878787604051620004ce9062000715565b620004e0979695949392919062000c1f565b604051809103906000f080158015620004fd573d6000803e3d6000fd5b5090507fcf5aa6a9e2555018da074780aa0038bddd6593bdee0a31aab11b330de23dae6e30826040516200053392919062000c8e565b60405180910390a15050505050505050565b6200054f62000649565b73ffffffffffffffffffffffffffffffffffffffff166200056f620003b3565b73ffffffffffffffffffffffffffffffffffffffff1614620005c8576040517f08c379a0000000000000000000000000000000000000000000000000000000008152600401620005bf9062000a69565b60405180910390fd5b600073ffffffffffffffffffffffffffffffffffffffff168173ffffffffffffffffffffffffffffffffffffffff1614156200063b576040517f08c379a0000000000000000000000000000000000000000000000000000000008152600401620006329062000d31565b60405180910390fd5b620006468162000651565b50565b600033905090565b60008060009054906101000a900473ffffffffffffffffffffffffffffffffffffffff169050816000806101000a81548173ffffffffffffffffffffffffffffffffffffffff021916908373ffffffffffffffffffffffffffffffffffffffff1602179055508173ffffffffffffffffffffffffffffffffffffffff168173ffffffffffffffffffffffffffffffffffffffff167f8be0079c531659141344cd1fd0a4f28419497f9722a3daafe3b4186f6b6457e060405160405180910390a35050565b61240a8062000d5483390190565b6000819050919050565b620007388162000723565b82525050565b60006020820190506200075560008301846200072d565b92915050565b600073ffffffffffffffffffffffffffffffffffffffff82169050919050565b600062000788826200075b565b9050919050565b6200079a816200077b565b82525050565b6000602082019050620007b760008301846200078f565b92915050565b600080fd5b600080fd5b620007d28162000723565b8114620007de57600080fd5b50565b600081359050620007f281620007c7565b92915050565b600060208284031215620008115762000810620007bd565b5b60006200082184828501620007e1565b91505092915050565b62000835816200077b565b81146200084157600080fd5b50565b60008135905062000855816200082a565b92915050565b600080fd5b600080fd5b600080fd5b60008083601f8401126200088357620008826200085b565b5b8235905067ffffffffffffffff811115620008a357620008a262000860565b5b602083019150836001820283011115620008c257620008c162000865565b5b9250929050565b600060ff82169050919050565b620008e181620008c9565b8114620008ed57600080fd5b50565b6000813590506200090181620008d6565b92915050565b600080600080600080600060a0888a031215620009295762000928620007bd565b5b6000620009398a828b0162000844565b97505060206200094c8a828b01620007e1565b965050604088013567ffffffffffffffff81111562000970576200096f620007c2565b5b6200097e8a828b016200086a565b9550955050606088013567ffffffffffffffff811115620009a457620009a3620007c2565b5b620009b28a828b016200086a565b93509350506080620009c78a828b01620008f0565b91505092959891949750929550565b600060208284031215620009ef57620009ee620007bd565b5b6000620009ff8482850162000844565b91505092915050565b600082825260208201905092915050565b7f4f776e61626c653a2063616c6c6572206973206e6f7420746865206f776e6572600082015250565b600062000a5160208362000a08565b915062000a5e8262000a19565b602082019050919050565b6000602082019050818103600083015262000a848162000a42565b9050919050565b600081905092915050565b50565b600062000aa860008362000a8b565b915062000ab58262000a96565b600082019050919050565b600062000acd8262000a99565b9150819050919050565b7f7472616e73616374696f6e206661696c65640000000000000000000000000000600082015250565b600062000b0f60128362000a08565b915062000b1c8262000ad7565b602082019050919050565b6000602082019050818103600083015262000b428162000b00565b9050919050565b7f4572726f723a20496e73756666696369656e74207061796d656e740000000000600082015250565b600062000b81601b8362000a08565b915062000b8e8262000b49565b602082019050919050565b6000602082019050818103600083015262000bb48162000b72565b9050919050565b82818337600083830152505050565b6000601f19601f8301169050919050565b600062000be9838562000a08565b935062000bf883858462000bbb565b62000c038362000bca565b840190509392505050565b62000c1981620008c9565b82525050565b600060a08201905062000c36600083018a6200078f565b62000c4560208301896200072d565b818103604083015262000c5a81878962000bdb565b9050818103606083015262000c7181858762000bdb565b905062000c82608083018462000c0e565b98975050505050505050565b600060408201905062000ca560008301856200078f565b62000cb460208301846200078f565b9392505050565b7f4f776e61626c653a206e6577206f776e657220697320746865207a65726f206160008201527f6464726573730000000000000000000000000000000000000000000000000000602082015250565b600062000d1960268362000a08565b915062000d268262000cbb565b604082019050919050565b6000602082019050818103600083015262000d4c8162000d0a565b905091905056fe60806040523480156200001157600080fd5b506040516200240a3803806200240a8339818101604052810190620000379190620005b6565b82828160039080519060200190620000519291906200028b565b5080600490805190602001906200006a9291906200028b565b50505084600560006101000a81548173ffffffffffffffffffffffffffffffffffffffff021916908373ffffffffffffffffffffffffffffffffffffffff16021790555080600560146101000a81548160ff021916908360ff160217905550620000fd600560009054906101000a900473ffffffffffffffffffffffffffffffffffffffff16856200010860201b60201c565b50505050506200081e565b600073ffffffffffffffffffffffffffffffffffffffff168273ffffffffffffffffffffffffffffffffffffffff1614156200017b576040517f08c379a00000000000000000000000000000000000000000000000000000000081526004016200017290620006dd565b60405180910390fd5b6200018f600083836200028160201b60201c565b8060026000828254620001a391906200072e565b92505081905550806000808473ffffffffffffffffffffffffffffffffffffffff1673ffffffffffffffffffffffffffffffffffffffff1681526020019081526020016000206000828254620001fa91906200072e565b925050819055508173ffffffffffffffffffffffffffffffffffffffff16600073ffffffffffffffffffffffffffffffffffffffff167fddf252ad1be2c89b69c2b068fc378daa952ba7f163c4a11628f55a4df523b3ef836040516200026191906200079c565b60405180910390a36200027d600083836200028660201b60201c565b5050565b505050565b505050565b8280546200029990620007e8565b90600052602060002090601f016020900481019282620002bd576000855562000309565b82601f10620002d857805160ff191683800117855562000309565b8280016001018555821562000309579182015b8281111562000308578251825591602001919060010190620002eb565b5b5090506200031891906200031c565b5090565b5b80821115620003375760008160009055506001016200031d565b5090565b6000604051905090565b600080fd5b600080fd5b600073ffffffffffffffffffffffffffffffffffffffff82169050919050565b60006200037c826200034f565b9050919050565b6200038e816200036f565b81146200039a57600080fd5b50565b600081519050620003ae8162000383565b92915050565b6000819050919050565b620003c981620003b4565b8114620003d557600080fd5b50565b600081519050620003e981620003be565b92915050565b600080fd5b600080fd5b6000601f19601f8301169050919050565b7f4e487b7100000000000000000000000000000000000000000000000000000000600052604160045260246000fd5b6200044482620003f9565b810181811067ffffffffffffffff821117156200046657620004656200040a565b5b80604052505050565b60006200047b6200033b565b905062000489828262000439565b919050565b600067ffffffffffffffff821115620004ac57620004ab6200040a565b5b620004b782620003f9565b9050602081019050919050565b60005b83811015620004e4578082015181840152602081019050620004c7565b83811115620004f4576000848401525b50505050565b6000620005116200050b846200048e565b6200046f565b90508281526020810184848401111562000530576200052f620003f4565b5b6200053d848285620004c4565b509392505050565b600082601f8301126200055d576200055c620003ef565b5b81516200056f848260208601620004fa565b91505092915050565b600060ff82169050919050565b620005908162000578565b81146200059c57600080fd5b50565b600081519050620005b08162000585565b92915050565b600080600080600060a08688031215620005d557620005d462000345565b5b6000620005e5888289016200039d565b9550506020620005f888828901620003d8565b945050604086015167ffffffffffffffff8111156200061c576200061b6200034a565b5b6200062a8882890162000545565b935050606086015167ffffffffffffffff8111156200064e576200064d6200034a565b5b6200065c8882890162000545565b92505060806200066f888289016200059f565b9150509295509295909350565b600082825260208201905092915050565b7f45524332303a206d696e7420746f20746865207a65726f206164647265737300600082015250565b6000620006c5601f836200067c565b9150620006d2826200068d565b602082019050919050565b60006020820190508181036000830152620006f881620006b6565b9050919050565b7f4e487b7100000000000000000000000000000000000000000000000000000000600052601160045260246000fd5b60006200073b82620003b4565b91506200074883620003b4565b9250827fffffffffffffffffffffffffffffffffffffffffffffffffffffffffffffffff0382111562000780576200077f620006ff565b5b828201905092915050565b6200079681620003b4565b82525050565b6000602082019050620007b360008301846200078b565b92915050565b7f4e487b7100000000000000000000000000000000000000000000000000000000600052602260045260246000fd5b600060028204905060018216806200080157607f821691505b60208210811415620008185762000817620007b9565b5b50919050565b611bdc806200082e6000396000f3fe608060405234801561001057600080fd5b50600436106101005760003560e01c806370a0823111610097578063a0712d6811610066578063a0712d68146102af578063a457c2d7146102cb578063a9059cbb146102fb578063dd62ed3e1461032b57610100565b806370a082311461022757806379cc6790146102575780638da5cb5b1461027357806395d89b411461029157610100565b8063313ce567116100d3578063313ce567146101a157806339509351146101bf57806342966c68146101ef578063449a52f81461020b57610100565b806306fdde0314610105578063095ea7b31461012357806318160ddd1461015357806323b872dd14610171575b600080fd5b61010d61035b565b60405161011a91906111e9565b60405180910390f35b61013d600480360381019061013891906112a4565b6103ed565b60405161014a91906112ff565b60405180910390f35b61015b610410565b6040516101689190611329565b60405180910390f35b61018b60048036038101906101869190611344565b61041a565b60405161019891906112ff565b60405180910390f35b6101a9610449565b6040516101b691906113b3565b60405180910390f35b6101d960048036038101906101d491906112a4565b610460565b6040516101e691906112ff565b60405180910390f35b610209600480360381019061020491906113ce565b61050a565b005b610225600480360381019061022091906112a4565b61051e565b005b610241600480360381019061023c91906113fb565b6105bc565b60405161024e9190611329565b60405180910390f35b610271600480360381019061026c91906112a4565b610604565b005b61027b610624565b6040516102889190611437565b60405180910390f35b61029961064a565b6040516102a691906111e9565b60405180910390f35b6102c960048036038101906102c491906113ce565b6106dc565b005b6102e560048036038101906102e091906112a4565b61079b565b6040516102f291906112ff565b60405180910390f35b610315600480360381019061031091906112a4565b610885565b60405161032291906112ff565b60405180910390f35b61034560048036038101906103409190611452565b6108a8565b6040516103529190611329565b60405180910390f35b60606003805461036a906114c1565b80601f0160208091040260200160405190810160405280929190818152602001828054610396906114c1565b80156103e35780601f106103b8576101008083540402835291602001916103e3565b820191906000526020600020905b8154815290600101906020018083116103c657829003601f168201915b5050505050905090565b6000806103f861092f565b9050610405818585610937565b600191505092915050565b6000600254905090565b60008061042561092f565b9050610432858285610b02565b61043d858585610b8e565b60019150509392505050565b6000600560149054906101000a900460ff16905090565b60008061046b61092f565b90506104ff818585600160008673ffffffffffffffffffffffffffffffffffffffff1673ffffffffffffffffffffffffffffffffffffffff16815260200190815260200160002060008973ffffffffffffffffffffffffffffffffffffffff1673ffffffffffffffffffffffffffffffffffffffff168152602001908152602001600020546104fa9190611522565b610937565b600191505092915050565b61051b61051561092f565b82610e0f565b50565b600560009054906101000a900473ffffffffffffffffffffffffffffffffffffffff1673ffffffffffffffffffffffffffffffffffffffff163373ffffffffffffffffffffffffffffffffffffffff16146105ae576040517f08c379a00000000000000000000000000000000000000000000000000000000081526004016105a5906115ea565b60405180910390fd5b6105b88282610fe6565b5050565b60008060008373ffffffffffffffffffffffffffffffffffffffff1673ffffffffffffffffffffffffffffffffffffffff168152602001908152602001600020549050919050565b6106168261061061092f565b83610b02565b6106208282610e0f565b5050565b600560009054906101000a900473ffffffffffffffffffffffffffffffffffffffff1681565b606060048054610659906114c1565b80601f0160208091040260200160405190810160405280929190818152602001828054610685906114c1565b80156106d25780601f106106a7576101008083540402835291602001916106d2565b820191906000526020600020905b8154815290600101906020018083116106b557829003601f168201915b5050505050905090565b600560009054906101000a900473ffffffffffffffffffffffffffffffffffffffff1673ffffffffffffffffffffffffffffffffffffffff163373ffffffffffffffffffffffffffffffffffffffff161461076c576040517f08c379a0000000000000000000000000000000000000000000000000000000008152600401610763906115ea565b60405180910390fd5b610798600560009054906101000a900473ffffffffffffffffffffffffffffffffffffffff1682610fe6565b50565b6000806107a661092f565b90506000600160008373ffffffffffffffffffffffffffffffffffffffff1673ffffffffffffffffffffffffffffffffffffffff16815260200190815260200160002060008673ffffffffffffffffffffffffffffffffffffffff1673ffffffffffffffffffffffffffffffffffffffff1681526020019081526020016000205490508381101561086c576040517f08c379a00000000000000000000000000000000000000000000000000000000081526004016108639061167c565b60405180910390fd5b6108798286868403610937565b60019250505092915050565b60008061089061092f565b905061089d818585610b8e565b600191505092915050565b6000600160008473ffffffffffffffffffffffffffffffffffffffff1673ffffffffffffffffffffffffffffffffffffffff16815260200190815260200160002060008373ffffffffffffffffffffffffffffffffffffffff1673ffffffffffffffffffffffffffffffffffffffff16815260200190815260200160002054905092915050565b600033905090565b600073ffffffffffffffffffffffffffffffffffffffff168373ffffffffffffffffffffffffffffffffffffffff1614156109a7576040517f08c379a000000000000000000000000000000000000000000000000000000000815260040161099e9061170e565b60405180910390fd5b600073ffffffffffffffffffffffffffffffffffffffff168273ffffffffffffffffffffffffffffffffffffffff161415610a17576040517f08c379a0000000000000000000000000000000000000000000000000000000008152600401610a0e906117a0565b60405180910390fd5b80600160008573ffffffffffffffffffffffffffffffffffffffff1673ffffffffffffffffffffffffffffffffffffffff16815260200190815260200160002060008473ffffffffffffffffffffffffffffffffffffffff1673ffffffffffffffffffffffffffffffffffffffff168152602001908152602001600020819055508173ffffffffffffffffffffffffffffffffffffffff168373ffffffffffffffffffffffffffffffffffffffff167f8c5be1e5ebec7d5bd14f71427d1e84f3dd0314c0f7b2291e5b200ac8c7c3b92583604051610af59190611329565b60405180910390a3505050565b6000610b0e84846108a8565b90507fffffffffffffffffffffffffffffffffffffffffffffffffffffffffffffffff8114610b885781811015610b7a576040517f08c379a0000000000000000000000000000000000000000000000000000000008152600401610b719061180c565b60405180910390fd5b610b878484848403610937565b5b50505050565b600073ffffffffffffffffffffffffffffffffffffffff168373ffffffffffffffffffffffffffffffffffffffff161415610bfe576040517f08c379a0000000000000000000000000000000000000000000000000000000008152600401610bf59061189e565b60405180910390fd5b600073ffffffffffffffffffffffffffffffffffffffff168273ffffffffffffffffffffffffffffffffffffffff161415610c6e576040517f08c379a0000000000000000000000000000000000000000000000000000000008152600401610c6590611930565b60405180910390fd5b610c79838383611146565b60008060008573ffffffffffffffffffffffffffffffffffffffff1673ffffffffffffffffffffffffffffffffffffffff16815260200190815260200160002054905081811015610cff576040517f08c379a0000000000000000000000000000000000000000000000000000000008152600401610cf6906119c2565b60405180910390fd5b8181036000808673ffffffffffffffffffffffffffffffffffffffff1673ffffffffffffffffffffffffffffffffffffffff16815260200190815260200160002081905550816000808573ffffffffffffffffffffffffffffffffffffffff1673ffffffffffffffffffffffffffffffffffffffff1681526020019081526020016000206000828254610d929190611522565b925050819055508273ffffffffffffffffffffffffffffffffffffffff168473ffffffffffffffffffffffffffffffffffffffff167fddf252ad1be2c89b69c2b068fc378daa952ba7f163c4a11628f55a4df523b3ef84604051610df69190611329565b60405180910390a3610e0984848461114b565b50505050565b600073ffffffffffffffffffffffffffffffffffffffff168273ffffffffffffffffffffffffffffffffffffffff161415610e7f576040517f08c379a0000000000000000000000000000000000000000000000000000000008152600401610e7690611a54565b60405180910390fd5b610e8b82600083611146565b60008060008473ffffffffffffffffffffffffffffffffffffffff1673ffffffffffffffffffffffffffffffffffffffff16815260200190815260200160002054905081811015610f11576040517f08c379a0000000000000000000000000000000000000000000000000000000008152600401610f0890611ae6565b60405180910390fd5b8181036000808573ffffffffffffffffffffffffffffffffffffffff1673ffffffffffffffffffffffffffffffffffffffff168152602001908152602001600020819055508160026000828254610f689190611b06565b92505081905550600073ffffffffffffffffffffffffffffffffffffffff168373ffffffffffffffffffffffffffffffffffffffff167fddf252ad1be2c89b69c2b068fc378daa952ba7f163c4a11628f55a4df523b3ef84604051610fcd9190611329565b60405180910390a3610fe18360008461114b565b505050565b600073ffffffffffffffffffffffffffffffffffffffff168273ffffffffffffffffffffffffffffffffffffffff161415611056576040517f08c379a000000000000000000000000000000000000000000000000000000000815260040161104d90611b86565b60405180910390fd5b61106260008383611146565b80600260008282546110749190611522565b92505081905550806000808473ffffffffffffffffffffffffffffffffffffffff1673ffffffffffffffffffffffffffffffffffffffff16815260200190815260200160002060008282546110c99190611522565b925050819055508173ffffffffffffffffffffffffffffffffffffffff16600073ffffffffffffffffffffffffffffffffffffffff167fddf252ad1be2c89b69c2b068fc378daa952ba7f163c4a11628f55a4df523b3ef8360405161112e9190611329565b60405180910390a36111426000838361114b565b5050565b505050565b505050565b600081519050919050565b600082825260208201905092915050565b60005b8381101561118a57808201518184015260208101905061116f565b83811115611199576000848401525b50505050565b6000601f19601f8301169050919050565b60006111bb82611150565b6111c5818561115b565b93506111d581856020860161116c565b6111de8161119f565b840191505092915050565b6000602082019050818103600083015261120381846111b0565b905092915050565b600080fd5b600073ffffffffffffffffffffffffffffffffffffffff82169050919050565b600061123b82611210565b9050919050565b61124b81611230565b811461125657600080fd5b50565b60008135905061126881611242565b92915050565b6000819050919050565b6112818161126e565b811461128c57600080fd5b50565b60008135905061129e81611278565b92915050565b600080604083850312156112bb576112ba61120b565b5b60006112c985828601611259565b92505060206112da8582860161128f565b9150509250929050565b60008115159050919050565b6112f9816112e4565b82525050565b600060208201905061131460008301846112f0565b92915050565b6113238161126e565b82525050565b600060208201905061133e600083018461131a565b92915050565b60008060006060848603121561135d5761135c61120b565b5b600061136b86828701611259565b935050602061137c86828701611259565b925050604061138d8682870161128f565b9150509250925092565b600060ff82169050919050565b6113ad81611397565b82525050565b60006020820190506113c860008301846113a4565b92915050565b6000602082840312156113e4576113e361120b565b5b60006113f28482850161128f565b91505092915050565b6000602082840312156114115761141061120b565b5b600061141f84828501611259565b91505092915050565b61143181611230565b82525050565b600060208201905061144c6000830184611428565b92915050565b600080604083850312156114695761146861120b565b5b600061147785828601611259565b925050602061148885828601611259565b9150509250929050565b7f4e487b7100000000000000000000000000000000000000000000000000000000600052602260045260246000fd5b600060028204905060018216806114d957607f821691505b602082108114156114ed576114ec611492565b5b50919050565b7f4e487b7100000000000000000000000000000000000000000000000000000000600052601160045260246000fd5b600061152d8261126e565b91506115388361126e565b9250827fffffffffffffffffffffffffffffffffffffffffffffffffffffffffffffffff0382111561156d5761156c6114f3565b5b828201905092915050565b7f556e617574686f72697a65643a204e6f7420746865206f776e6572206163636f60008201527f756e740000000000000000000000000000000000000000000000000000000000602082015250565b60006115d460238361115b565b91506115df82611578565b604082019050919050565b60006020820190508181036000830152611603816115c7565b9050919050565b7f45524332303a2064656372656173656420616c6c6f77616e63652062656c6f7760008201527f207a65726f000000000000000000000000000000000000000000000000000000602082015250565b600061166660258361115b565b91506116718261160a565b604082019050919050565b6000602082019050818103600083015261169581611659565b9050919050565b7f45524332303a20617070726f76652066726f6d20746865207a65726f2061646460008201527f7265737300000000000000000000000000000000000000000000000000000000602082015250565b60006116f860248361115b565b91506117038261169c565b604082019050919050565b60006020820190508181036000830152611727816116eb565b9050919050565b7f45524332303a20617070726f766520746f20746865207a65726f20616464726560008201527f7373000000000000000000000000000000000000000000000000000000000000602082015250565b600061178a60228361115b565b91506117958261172e565b604082019050919050565b600060208201905081810360008301526117b98161177d565b9050919050565b7f45524332303a20696e73756666696369656e7420616c6c6f77616e6365000000600082015250565b60006117f6601d8361115b565b9150611801826117c0565b602082019050919050565b60006020820190508181036000830152611825816117e9565b9050919050565b7f45524332303a207472616e736665722066726f6d20746865207a65726f20616460008201527f6472657373000000000000000000000000000000000000000000000000000000602082015250565b600061188860258361115b565b91506118938261182c565b604082019050919050565b600060208201905081810360008301526118b78161187b565b9050919050565b7f45524332303a207472616e7366657220746f20746865207a65726f206164647260008201527f6573730000000000000000000000000000000000000000000000000000000000602082015250565b600061191a60238361115b565b9150611925826118be565b604082019050919050565b600060208201905081810360008301526119498161190d565b9050919050565b7f45524332303a207472616e7366657220616d6f756e742065786365656473206260008201527f616c616e63650000000000000000000000000000000000000000000000000000602082015250565b60006119ac60268361115b565b91506119b782611950565b604082019050919050565b600060208201905081810360008301526119db8161199f565b9050919050565b7f45524332303a206275726e2066726f6d20746865207a65726f2061646472657360008201527f7300000000000000000000000000000000000000000000000000000000000000602082015250565b6000611a3e60218361115b565b9150611a49826119e2565b604082019050919050565b60006020820190508181036000830152611a6d81611a31565b9050919050565b7f45524332303a206275726e20616d6f756e7420657863656564732062616c616e60008201527f6365000000000000000000000000000000000000000000000000000000000000602082015250565b6000611ad060228361115b565b9150611adb82611a74565b604082019050919050565b60006020820190508181036000830152611aff81611ac3565b9050919050565b6000611b118261126e565b9150611b1c8361126e565b925082821015611b2f57611b2e6114f3565b5b828203905092915050565b7f45524332303a206d696e7420746f20746865207a65726f206164647265737300600082015250565b6000611b70601f8361115b565b9150611b7b82611b3a565b602082019050919050565b60006020820190508181036000830152611b9f81611b63565b905091905056fea2646970667358221220231796e536879a099bbb005f505a6125f0e747d72a912fac63ad9e066f2998af64736f6c63430008090033a2646970667358221220936cf8abe07880d2e1fb12784f967179397e0a2206c16d7ae0e0d122ab1dfd9c64736f6c63430008090033",
  "linkReferences": {},
  "deployedLinkReferences": {}
}