{
  "_format": "hh-sol-artifact-1",
  "contractName": "CustomERC20",
  "sourceName": "contracts/CustomERC20.sol",
  "abi": [
    {
      "inputs": [
        {
          "internalType": "address",
          "name": "_tokenOwner",
          "type": "address"
        },
        {
          "internalType": "uint256",
          "name": "_initialSupply",
          "type": "uint256"
        },
        {
          "internalType": "string",
          "name": "_name",
          "type": "string"
        },
        {
          "internalType": "string",
          "name": "_symbol",
          "type": "string"
        },
        {
          "internalType": "uint8",
          "name": "_decimals",
          "type": "uint8"
        }
      ],
      "stateMutability": "nonpayable",
      "type": "constructor"
    },
    {
      "anonymous": false,
      "inputs": [
        {
          "indexed": true,
          "internalType": "address",
          "name": "owner",
          "type": "address"
        },
        {
          "indexed": true,
          "internalType": "address",
          "name": "spender",
          "type": "address"
        },
        {
          "indexed": false,
          "internalType": "uint256",
          "name": "value",
          "type": "uint256"
        }
      ],
      "name": "Approval",
      "type": "event"
    },
    {
      "anonymous": false,
      "inputs": [
        {
          "indexed": true,
          "internalType": "address",
          "name": "from",
          "type": "address"
        },
        {
          "indexed": true,
          "internalType": "address",
          "name": "to",
          "type": "address"
        },
        {
          "indexed": false,
          "internalType": "uint256",
          "name": "value",
          "type": "uint256"
        }
      ],
      "name": "Transfer",
      "type": "event"
    },
    {
      "inputs": [
        {
          "internalType": "address",
          "name": "owner",
          "type": "address"
        },
        {
          "internalType": "address",
          "name": "spender",
          "type": "address"
        }
      ],
      "name": "allowance",
      "outputs": [
        {
          "internalType": "uint256",
          "name": "",
          "type": "uint256"
        }
      ],
      "stateMutability": "view",
      "type": "function"
    },
    {
      "inputs": [
        {
          "internalType": "address",
          "name": "spender",
          "type": "address"
        },
        {
          "internalType": "uint256",
          "name": "amount",
          "type": "uint256"
        }
      ],
      "name": "approve",
      "outputs": [
        {
          "internalType": "bool",
          "name": "",
          "type": "bool"
        }
      ],
      "stateMutability": "nonpayable",
      "type": "function"
    },
    {
      "inputs": [
        {
          "internalType": "address",
          "name": "account",
          "type": "address"
        }
      ],
      "name": "balanceOf",
      "outputs": [
        {
          "internalType": "uint256",
          "name": "",
          "type": "uint256"
        }
      ],
      "stateMutability": "view",
      "type": "function"
    },
    {
      "inputs": [
        {
          "internalType": "uint256",
          "name": "amount",
          "type": "uint256"
        }
      ],
      "name": "burn",
      "outputs": [],
      "stateMutability": "nonpayable",
      "type": "function"
    },
    {
      "inputs": [
        {
          "internalType": "address",
          "name": "account",
          "type": "address"
        },
        {
          "internalType": "uint256",
          "name": "amount",
          "type": "uint256"
        }
      ],
      "name": "burnFrom",
      "outputs": [],
      "stateMutability": "nonpayable",
      "type": "function"
    },
    {
      "inputs": [],
      "name": "decimals",
      "outputs": [
        {
          "internalType": "uint8",
          "name": "",
          "type": "uint8"
        }
      ],
      "stateMutability": "view",
      "type": "function"
    },
    {
      "inputs": [
        {
          "internalType": "address",
          "name": "spender",
          "type": "address"
        },
        {
          "internalType": "uint256",
          "name": "subtractedValue",
          "type": "uint256"
        }
      ],
      "name": "decreaseAllowance",
      "outputs": [
        {
          "internalType": "bool",
          "name": "",
          "type": "bool"
        }
      ],
      "stateMutability": "nonpayable",
      "type": "function"
    },
    {
      "inputs": [
        {
          "internalType": "address",
          "name": "spender",
          "type": "address"
        },
        {
          "internalType": "uint256",
          "name": "addedValue",
          "type": "uint256"
        }
      ],
      "name": "increaseAllowance",
      "outputs": [
        {
          "internalType": "bool",
          "name": "",
          "type": "bool"
        }
      ],
      "stateMutability": "nonpayable",
      "type": "function"
    },
    {
      "inputs": [
        {
          "internalType": "uint256",
          "name": "amount",
          "type": "uint256"
        }
      ],
      "name": "mint",
      "outputs": [],
      "stateMutability": "nonpayable",
      "type": "function"
    },
    {
      "inputs": [
        {
          "internalType": "address",
          "name": "account",
          "type": "address"
        },
        {
          "internalType": "uint256",
          "name": "amount",
          "type": "uint256"
        }
      ],
      "name": "mintTo",
      "outputs": [],
      "stateMutability": "nonpayable",
      "type": "function"
    },
    {
      "inputs": [],
      "name": "name",
      "outputs": [
        {
          "internalType": "string",
          "name": "",
          "type": "string"
        }
      ],
      "stateMutability": "view",
      "type": "function"
    },
    {
      "inputs": [],
      "name": "owner",
      "outputs": [
        {
          "internalType": "address",
          "name": "",
          "type": "address"
        }
      ],
      "stateMutability": "view",
      "type": "function"
    },
    {
      "inputs": [],
      "name": "symbol",
      "outputs": [
        {
          "internalType": "string",
          "name": "",
          "type": "string"
        }
      ],
      "stateMutability": "view",
      "type": "function"
    },
    {
      "inputs": [],
      "name": "totalSupply",
      "outputs": [
        {
          "internalType": "uint256",
          "name": "",
          "type": "uint256"
        }
      ],
      "stateMutability": "view",
      "type": "function"
    },
    {
      "inputs": [
        {
          "internalType": "address",
          "name": "to",
          "type": "address"
        },
        {
          "internalType": "uint256",
          "name": "amount",
          "type": "uint256"
        }
      ],
      "name": "transfer",
      "outputs": [
        {
          "internalType": "bool",
          "name": "",
          "type": "bool"
        }
      ],
      "stateMutability": "nonpayable",
      "type": "function"
    },
    {
      "inputs": [
        {
          "internalType": "address",
          "name": "from",
          "type": "address"
        },
        {
          "internalType": "address",
          "name": "to",
          "type": "address"
        },
        {
          "internalType": "uint256",
          "name": "amount",
          "type": "uint256"
        }
      ],
      "name": "transferFrom",
      "outputs": [
        {
          "internalType": "bool",
          "name": "",
          "type": "bool"
        }
      ],
      "stateMutability": "nonpayable",
      "type": "function"
    }
  ],
  "bytecode": "0x60806040523480156200001157600080fd5b50604051620023e1380380620023e18339818101604052810190620000379190620003f2565b82828160039080519060200190620000519291906200028b565b5080600490805190602001906200006a9291906200028b565b50505084600560006101000a81548173ffffffffffffffffffffffffffffffffffffffff021916908373ffffffffffffffffffffffffffffffffffffffff16021790555080600560146101000a81548160ff021916908360ff160217905550620000fd600560009054906101000a900473ffffffffffffffffffffffffffffffffffffffff16856200010860201b60201c565b5050505050620007ec565b600073ffffffffffffffffffffffffffffffffffffffff168273ffffffffffffffffffffffffffffffffffffffff1614156200017b576040517f08c379a00000000000000000000000000000000000000000000000000000000081526004016200017290620004de565b60405180910390fd5b6200018f600083836200028160201b60201c565b8060026000828254620001a391906200058d565b92505081905550806000808473ffffffffffffffffffffffffffffffffffffffff1673ffffffffffffffffffffffffffffffffffffffff1681526020019081526020016000206000828254620001fa91906200058d565b925050819055508173ffffffffffffffffffffffffffffffffffffffff16600073ffffffffffffffffffffffffffffffffffffffff167fddf252ad1be2c89b69c2b068fc378daa952ba7f163c4a11628f55a4df523b3ef8360405162000261919062000500565b60405180910390a36200027d600083836200028660201b60201c565b5050565b505050565b505050565b82805462000299906200066b565b90600052602060002090601f016020900481019282620002bd576000855562000309565b82601f10620002d857805160ff191683800117855562000309565b8280016001018555821562000309579182015b8281111562000308578251825591602001919060010190620002eb565b5b5090506200031891906200031c565b5090565b5b80821115620003375760008160009055506001016200031d565b5090565b6000620003526200034c8462000546565b6200051d565b9050828152602081018484840111156200036b57600080fd5b6200037884828562000635565b509392505050565b60008151905062000391816200079e565b92915050565b600082601f830112620003a957600080fd5b8151620003bb8482602086016200033b565b91505092915050565b600081519050620003d581620007b8565b92915050565b600081519050620003ec81620007d2565b92915050565b600080600080600060a086880312156200040b57600080fd5b60006200041b8882890162000380565b95505060206200042e88828901620003c4565b945050604086015167ffffffffffffffff8111156200044c57600080fd5b6200045a8882890162000397565b935050606086015167ffffffffffffffff8111156200047857600080fd5b620004868882890162000397565b92505060806200049988828901620003db565b9150509295509295909350565b6000620004b5601f836200057c565b9150620004c28262000775565b602082019050919050565b620004d8816200061e565b82525050565b60006020820190508181036000830152620004f981620004a6565b9050919050565b6000602082019050620005176000830184620004cd565b92915050565b6000620005296200053c565b9050620005378282620006a1565b919050565b6000604051905090565b600067ffffffffffffffff82111562000564576200056362000735565b5b6200056f8262000764565b9050602081019050919050565b600082825260208201905092915050565b60006200059a826200061e565b9150620005a7836200061e565b9250827fffffffffffffffffffffffffffffffffffffffffffffffffffffffffffffffff03821115620005df57620005de620006d7565b5b828201905092915050565b6000620005f782620005fe565b9050919050565b600073ffffffffffffffffffffffffffffffffffffffff82169050919050565b6000819050919050565b600060ff82169050919050565b60005b838110156200065557808201518184015260208101905062000638565b8381111562000665576000848401525b50505050565b600060028204905060018216806200068457607f821691505b602082108114156200069b576200069a62000706565b5b50919050565b620006ac8262000764565b810181811067ffffffffffffffff82111715620006ce57620006cd62000735565b5b80604052505050565b7f4e487b7100000000000000000000000000000000000000000000000000000000600052601160045260246000fd5b7f4e487b7100000000000000000000000000000000000000000000000000000000600052602260045260246000fd5b7f4e487b7100000000000000000000000000000000000000000000000000000000600052604160045260246000fd5b6000601f19601f8301169050919050565b7f45524332303a206d696e7420746f20746865207a65726f206164647265737300600082015250565b620007a981620005ea565b8114620007b557600080fd5b50565b620007c3816200061e565b8114620007cf57600080fd5b50565b620007dd8162000628565b8114620007e957600080fd5b50565b611be580620007fc6000396000f3fe608060405234801561001057600080fd5b50600436106101005760003560e01c806370a0823111610097578063a0712d6811610066578063a0712d68146102af578063a457c2d7146102cb578063a9059cbb146102fb578063dd62ed3e1461032b57610100565b806370a082311461022757806379cc6790146102575780638da5cb5b1461027357806395d89b411461029157610100565b8063313ce567116100d3578063313ce567146101a157806339509351146101bf57806342966c68146101ef578063449a52f81461020b57610100565b806306fdde0314610105578063095ea7b31461012357806318160ddd1461015357806323b872dd14610171575b600080fd5b61010d61035b565b60405161011a91906114e1565b60405180910390f35b61013d60048036038101906101389190611250565b6103ed565b60405161014a91906114c6565b60405180910390f35b61015b610410565b6040516101689190611663565b60405180910390f35b61018b60048036038101906101869190611201565b61041a565b60405161019891906114c6565b60405180910390f35b6101a9610449565b6040516101b6919061167e565b60405180910390f35b6101d960048036038101906101d49190611250565b610460565b6040516101e691906114c6565b60405180910390f35b6102096004803603810190610204919061128c565b61050a565b005b61022560048036038101906102209190611250565b61051e565b005b610241600480360381019061023c919061119c565b6105de565b60405161024e9190611663565b60405180910390f35b610271600480360381019061026c9190611250565b610626565b005b61027b610646565b60405161028891906114ab565b60405180910390f35b61029961066c565b6040516102a691906114e1565b60405180910390f35b6102c960048036038101906102c4919061128c565b6106fe565b005b6102e560048036038101906102e09190611250565b6107bd565b6040516102f291906114c6565b60405180910390f35b61031560048036038101906103109190611250565b6108a7565b60405161032291906114c6565b60405180910390f35b610345600480360381019061034091906111c5565b6108ca565b6040516103529190611663565b60405180910390f35b60606003805461036a906117c7565b80601f0160208091040260200160405190810160405280929190818152602001828054610396906117c7565b80156103e35780601f106103b8576101008083540402835291602001916103e3565b820191906000526020600020905b8154815290600101906020018083116103c657829003601f168201915b5050505050905090565b6000806103f8610951565b9050610405818585610959565b600191505092915050565b6000600254905090565b600080610425610951565b9050610432858285610b24565b61043d858585610bb0565b60019150509392505050565b6000600560149054906101000a900460ff16905090565b60008061046b610951565b90506104ff818585600160008673ffffffffffffffffffffffffffffffffffffffff1673ffffffffffffffffffffffffffffffffffffffff16815260200190815260200160002060008973ffffffffffffffffffffffffffffffffffffffff1673ffffffffffffffffffffffffffffffffffffffff168152602001908152602001600020546104fa91906116b5565b610959565b600191505092915050565b61051b610515610951565b82610e31565b50565b600560009054906101000a900473ffffffffffffffffffffffffffffffffffffffff1673ffffffffffffffffffffffffffffffffffffffff163373ffffffffffffffffffffffffffffffffffffffff16146105ae576040517f08c379a00000000000000000000000000000000000000000000000000000000081526004016105a590611543565b60405180910390fd5b6105da600560009054906101000a900473ffffffffffffffffffffffffffffffffffffffff1682611008565b5050565b60008060008373ffffffffffffffffffffffffffffffffffffffff1673ffffffffffffffffffffffffffffffffffffffff168152602001908152602001600020549050919050565b61063882610632610951565b83610b24565b6106428282610e31565b5050565b600560009054906101000a900473ffffffffffffffffffffffffffffffffffffffff1681565b60606004805461067b906117c7565b80601f01602080910402602001604051908101604052809291908181526020018280546106a7906117c7565b80156106f45780601f106106c9576101008083540402835291602001916106f4565b820191906000526020600020905b8154815290600101906020018083116106d757829003601f168201915b5050505050905090565b600560009054906101000a900473ffffffffffffffffffffffffffffffffffffffff1673ffffffffffffffffffffffffffffffffffffffff163373ffffffffffffffffffffffffffffffffffffffff161461078e576040517f08c379a000000000000000000000000000000000000000000000000000000000815260040161078590611543565b60405180910390fd5b6107ba600560009054906101000a900473ffffffffffffffffffffffffffffffffffffffff1682611008565b50565b6000806107c8610951565b90506000600160008373ffffffffffffffffffffffffffffffffffffffff1673ffffffffffffffffffffffffffffffffffffffff16815260200190815260200160002060008673ffffffffffffffffffffffffffffffffffffffff1673ffffffffffffffffffffffffffffffffffffffff1681526020019081526020016000205490508381101561088e576040517f08c379a000000000000000000000000000000000000000000000000000000000815260040161088590611623565b60405180910390fd5b61089b8286868403610959565b60019250505092915050565b6000806108b2610951565b90506108bf818585610bb0565b600191505092915050565b6000600160008473ffffffffffffffffffffffffffffffffffffffff1673ffffffffffffffffffffffffffffffffffffffff16815260200190815260200160002060008373ffffffffffffffffffffffffffffffffffffffff1673ffffffffffffffffffffffffffffffffffffffff16815260200190815260200160002054905092915050565b600033905090565b600073ffffffffffffffffffffffffffffffffffffffff168373ffffffffffffffffffffffffffffffffffffffff1614156109c9576040517f08c379a00000000000000000000000000000000000000000000000000000000081526004016109c090611603565b60405180910390fd5b600073ffffffffffffffffffffffffffffffffffffffff168273ffffffffffffffffffffffffffffffffffffffff161415610a39576040517f08c379a0000000000000000000000000000000000000000000000000000000008152600401610a3090611563565b60405180910390fd5b80600160008573ffffffffffffffffffffffffffffffffffffffff1673ffffffffffffffffffffffffffffffffffffffff16815260200190815260200160002060008473ffffffffffffffffffffffffffffffffffffffff1673ffffffffffffffffffffffffffffffffffffffff168152602001908152602001600020819055508173ffffffffffffffffffffffffffffffffffffffff168373ffffffffffffffffffffffffffffffffffffffff167f8c5be1e5ebec7d5bd14f71427d1e84f3dd0314c0f7b2291e5b200ac8c7c3b92583604051610b179190611663565b60405180910390a3505050565b6000610b3084846108ca565b90507fffffffffffffffffffffffffffffffffffffffffffffffffffffffffffffffff8114610baa5781811015610b9c576040517f08c379a0000000000000000000000000000000000000000000000000000000008152600401610b9390611583565b60405180910390fd5b610ba98484848403610959565b5b50505050565b600073ffffffffffffffffffffffffffffffffffffffff168373ffffffffffffffffffffffffffffffffffffffff161415610c20576040517f08c379a0000000000000000000000000000000000000000000000000000000008152600401610c17906115e3565b60405180910390fd5b600073ffffffffffffffffffffffffffffffffffffffff168273ffffffffffffffffffffffffffffffffffffffff161415610c90576040517f08c379a0000000000000000000000000000000000000000000000000000000008152600401610c8790611503565b60405180910390fd5b610c9b838383611168565b60008060008573ffffffffffffffffffffffffffffffffffffffff1673ffffffffffffffffffffffffffffffffffffffff16815260200190815260200160002054905081811015610d21576040517f08c379a0000000000000000000000000000000000000000000000000000000008152600401610d18906115a3565b60405180910390fd5b8181036000808673ffffffffffffffffffffffffffffffffffffffff1673ffffffffffffffffffffffffffffffffffffffff16815260200190815260200160002081905550816000808573ffffffffffffffffffffffffffffffffffffffff1673ffffffffffffffffffffffffffffffffffffffff1681526020019081526020016000206000828254610db491906116b5565b925050819055508273ffffffffffffffffffffffffffffffffffffffff168473ffffffffffffffffffffffffffffffffffffffff167fddf252ad1be2c89b69c2b068fc378daa952ba7f163c4a11628f55a4df523b3ef84604051610e189190611663565b60405180910390a3610e2b84848461116d565b50505050565b600073ffffffffffffffffffffffffffffffffffffffff168273ffffffffffffffffffffffffffffffffffffffff161415610ea1576040517f08c379a0000000000000000000000000000000000000000000000000000000008152600401610e98906115c3565b60405180910390fd5b610ead82600083611168565b60008060008473ffffffffffffffffffffffffffffffffffffffff1673ffffffffffffffffffffffffffffffffffffffff16815260200190815260200160002054905081811015610f33576040517f08c379a0000000000000000000000000000000000000000000000000000000008152600401610f2a90611523565b60405180910390fd5b8181036000808573ffffffffffffffffffffffffffffffffffffffff1673ffffffffffffffffffffffffffffffffffffffff168152602001908152602001600020819055508160026000828254610f8a919061170b565b92505081905550600073ffffffffffffffffffffffffffffffffffffffff168373ffffffffffffffffffffffffffffffffffffffff167fddf252ad1be2c89b69c2b068fc378daa952ba7f163c4a11628f55a4df523b3ef84604051610fef9190611663565b60405180910390a36110038360008461116d565b505050565b600073ffffffffffffffffffffffffffffffffffffffff168273ffffffffffffffffffffffffffffffffffffffff161415611078576040517f08c379a000000000000000000000000000000000000000000000000000000000815260040161106f90611643565b60405180910390fd5b61108460008383611168565b806002600082825461109691906116b5565b92505081905550806000808473ffffffffffffffffffffffffffffffffffffffff1673ffffffffffffffffffffffffffffffffffffffff16815260200190815260200160002060008282546110eb91906116b5565b925050819055508173ffffffffffffffffffffffffffffffffffffffff16600073ffffffffffffffffffffffffffffffffffffffff167fddf252ad1be2c89b69c2b068fc378daa952ba7f163c4a11628f55a4df523b3ef836040516111509190611663565b60405180910390a36111646000838361116d565b5050565b505050565b505050565b60008135905061118181611b81565b92915050565b60008135905061119681611b98565b92915050565b6000602082840312156111ae57600080fd5b60006111bc84828501611172565b91505092915050565b600080604083850312156111d857600080fd5b60006111e685828601611172565b92505060206111f785828601611172565b9150509250929050565b60008060006060848603121561121657600080fd5b600061122486828701611172565b935050602061123586828701611172565b925050604061124686828701611187565b9150509250925092565b6000806040838503121561126357600080fd5b600061127185828601611172565b925050602061128285828601611187565b9150509250929050565b60006020828403121561129e57600080fd5b60006112ac84828501611187565b91505092915050565b6112be8161173f565b82525050565b6112cd81611751565b82525050565b60006112de82611699565b6112e881856116a4565b93506112f8818560208601611794565b61130181611857565b840191505092915050565b60006113196023836116a4565b915061132482611868565b604082019050919050565b600061133c6022836116a4565b9150611347826118b7565b604082019050919050565b600061135f6023836116a4565b915061136a82611906565b604082019050919050565b60006113826022836116a4565b915061138d82611955565b604082019050919050565b60006113a5601d836116a4565b91506113b0826119a4565b602082019050919050565b60006113c86026836116a4565b91506113d3826119cd565b604082019050919050565b60006113eb6021836116a4565b91506113f682611a1c565b604082019050919050565b600061140e6025836116a4565b915061141982611a6b565b604082019050919050565b60006114316024836116a4565b915061143c82611aba565b604082019050919050565b60006114546025836116a4565b915061145f82611b09565b604082019050919050565b6000611477601f836116a4565b915061148282611b58565b602082019050919050565b6114968161177d565b82525050565b6114a581611787565b82525050565b60006020820190506114c060008301846112b5565b92915050565b60006020820190506114db60008301846112c4565b92915050565b600060208201905081810360008301526114fb81846112d3565b905092915050565b6000602082019050818103600083015261151c8161130c565b9050919050565b6000602082019050818103600083015261153c8161132f565b9050919050565b6000602082019050818103600083015261155c81611352565b9050919050565b6000602082019050818103600083015261157c81611375565b9050919050565b6000602082019050818103600083015261159c81611398565b9050919050565b600060208201905081810360008301526115bc816113bb565b9050919050565b600060208201905081810360008301526115dc816113de565b9050919050565b600060208201905081810360008301526115fc81611401565b9050919050565b6000602082019050818103600083015261161c81611424565b9050919050565b6000602082019050818103600083015261163c81611447565b9050919050565b6000602082019050818103600083015261165c8161146a565b9050919050565b6000602082019050611678600083018461148d565b92915050565b6000602082019050611693600083018461149c565b92915050565b600081519050919050565b600082825260208201905092915050565b60006116c08261177d565b91506116cb8361177d565b9250827fffffffffffffffffffffffffffffffffffffffffffffffffffffffffffffffff03821115611700576116ff6117f9565b5b828201905092915050565b60006117168261177d565b91506117218361177d565b925082821015611734576117336117f9565b5b828203905092915050565b600061174a8261175d565b9050919050565b60008115159050919050565b600073ffffffffffffffffffffffffffffffffffffffff82169050919050565b6000819050919050565b600060ff82169050919050565b60005b838110156117b2578082015181840152602081019050611797565b838111156117c1576000848401525b50505050565b600060028204905060018216806117df57607f821691505b602082108114156117f3576117f2611828565b5b50919050565b7f4e487b7100000000000000000000000000000000000000000000000000000000600052601160045260246000fd5b7f4e487b7100000000000000000000000000000000000000000000000000000000600052602260045260246000fd5b6000601f19601f8301169050919050565b7f45524332303a207472616e7366657220746f20746865207a65726f206164647260008201527f6573730000000000000000000000000000000000000000000000000000000000602082015250565b7f45524332303a206275726e20616d6f756e7420657863656564732062616c616e60008201527f6365000000000000000000000000000000000000000000000000000000000000602082015250565b7f556e617574686f72697a65643a204e6f7420746865206f776e6572206163636f60008201527f756e740000000000000000000000000000000000000000000000000000000000602082015250565b7f45524332303a20617070726f766520746f20746865207a65726f20616464726560008201527f7373000000000000000000000000000000000000000000000000000000000000602082015250565b7f45524332303a20696e73756666696369656e7420616c6c6f77616e6365000000600082015250565b7f45524332303a207472616e7366657220616d6f756e742065786365656473206260008201527f616c616e63650000000000000000000000000000000000000000000000000000602082015250565b7f45524332303a206275726e2066726f6d20746865207a65726f2061646472657360008201527f7300000000000000000000000000000000000000000000000000000000000000602082015250565b7f45524332303a207472616e736665722066726f6d20746865207a65726f20616460008201527f6472657373000000000000000000000000000000000000000000000000000000602082015250565b7f45524332303a20617070726f76652066726f6d20746865207a65726f2061646460008201527f7265737300000000000000000000000000000000000000000000000000000000602082015250565b7f45524332303a2064656372656173656420616c6c6f77616e63652062656c6f7760008201527f207a65726f000000000000000000000000000000000000000000000000000000602082015250565b7f45524332303a206d696e7420746f20746865207a65726f206164647265737300600082015250565b611b8a8161173f565b8114611b9557600080fd5b50565b611ba18161177d565b8114611bac57600080fd5b5056fea264697066735822122051063bd33eb8651c62853760fd9fefc26c008f25719ddfe5414792e9c771aeb764736f6c63430008040033",
  "linkReferences": {},
  "deployedLinkReferences": {}
}