{
  "_format": "hh-sol-artifact-1",
  "contractName": "CustomERC20Builder",
  "sourceName": "src/contracts/CustomERC20Builder.sol",
  "abi": [
    {
      "inputs": [],
      "stateMutability": "nonpayable",
      "type": "constructor"
    },
    {
      "anonymous": false,
      "inputs": [
        {
          "indexed": true,
          "internalType": "address",
          "name": "previousOwner",
          "type": "address"
        },
        {
          "indexed": true,
          "internalType": "address",
          "name": "newOwner",
          "type": "address"
        }
      ],
      "name": "OwnershipTransferred",
      "type": "event"
    },
    {
      "anonymous": false,
      "inputs": [
        {
          "indexed": false,
          "internalType": "address",
          "name": "builderAddress",
          "type": "address"
        },
        {
          "indexed": false,
          "internalType": "address",
          "name": "tokenAddress",
          "type": "address"
        }
      ],
      "name": "TokenDeployment",
      "type": "event"
    },
    {
      "stateMutability": "payable",
      "type": "fallback"
    },
    {
      "inputs": [
        {
          "internalType": "address",
          "name": "_tokenOwner",
          "type": "address"
        },
        {
          "internalType": "uint256",
          "name": "_initialSupply",
          "type": "uint256"
        },
        {
          "internalType": "string",
          "name": "_name",
          "type": "string"
        },
        {
          "internalType": "string",
          "name": "_symbol",
          "type": "string"
        },
        {
          "internalType": "uint8",
          "name": "_decimals",
          "type": "uint8"
        },
        {
          "internalType": "bool",
          "name": "_mintable",
          "type": "bool"
        }
      ],
      "name": "buildERC20",
      "outputs": [],
      "stateMutability": "payable",
      "type": "function"
    },
    {
      "inputs": [],
      "name": "getBalance",
      "outputs": [
        {
          "internalType": "uint256",
          "name": "",
          "type": "uint256"
        }
      ],
      "stateMutability": "view",
      "type": "function"
    },
    {
      "inputs": [],
      "name": "owner",
      "outputs": [
        {
          "internalType": "address",
          "name": "",
          "type": "address"
        }
      ],
      "stateMutability": "view",
      "type": "function"
    },
    {
      "inputs": [],
      "name": "price",
      "outputs": [
        {
          "internalType": "uint256",
          "name": "",
          "type": "uint256"
        }
      ],
      "stateMutability": "view",
      "type": "function"
    },
    {
      "inputs": [],
      "name": "renounceOwnership",
      "outputs": [],
      "stateMutability": "nonpayable",
      "type": "function"
    },
    {
      "inputs": [
        {
          "internalType": "uint256",
          "name": "_price",
          "type": "uint256"
        }
      ],
      "name": "setPrice",
      "outputs": [],
      "stateMutability": "nonpayable",
      "type": "function"
    },
    {
      "inputs": [
        {
          "internalType": "address",
          "name": "newOwner",
          "type": "address"
        }
      ],
      "name": "transferOwnership",
      "outputs": [],
      "stateMutability": "nonpayable",
      "type": "function"
    },
    {
      "inputs": [],
      "name": "withdraw",
      "outputs": [],
      "stateMutability": "nonpayable",
      "type": "function"
    },
    {
      "stateMutability": "payable",
      "type": "receive"
    }
  ],
  "bytecode": "0x608060405234801561001057600080fd5b5061002d61002261004060201b60201c565b61004860201b60201c565b66038d7ea4c6800060018190555061010c565b600033905090565b60008060009054906101000a900473ffffffffffffffffffffffffffffffffffffffff169050816000806101000a81548173ffffffffffffffffffffffffffffffffffffffff021916908373ffffffffffffffffffffffffffffffffffffffff1602179055508173ffffffffffffffffffffffffffffffffffffffff168173ffffffffffffffffffffffffffffffffffffffff167f8be0079c531659141344cd1fd0a4f28419497f9722a3daafe3b4186f6b6457e060405160405180910390a35050565b6133e18061011b6000396000f3fe6080604052600436106200008b5760003560e01c80638da5cb5b11620000555780638da5cb5b146200011957806391b7f5ed1462000149578063a035b1fe1462000177578063f2fde38b14620001a75762000093565b806312065fe01462000095578063293bb7d614620000c55780633ccfd60b14620000e5578063715018a614620000ff5762000093565b366200009357005b005b348015620000a257600080fd5b50620000ad620001d5565b604051620000bc919062000741565b60405180910390f35b620000e36004803603810190620000dd9190620008e7565b620001dd565b005b348015620000f257600080fd5b50620000fd620002b6565b005b3480156200010c57600080fd5b5062000117620003fb565b005b3480156200012657600080fd5b50620001316200048c565b604051620001409190620009dc565b60405180910390f35b3480156200015657600080fd5b506200017560048036038101906200016f9190620009f9565b620004b5565b005b3480156200018457600080fd5b506200018f62000542565b6040516200019e919062000741565b60405180910390f35b348015620001b457600080fd5b50620001d36004803603810190620001cd919062000a2b565b62000548565b005b600047905090565b60015434101562000225576040517f08c379a00000000000000000000000000000000000000000000000000000000081526004016200021c9062000abe565b60405180910390fd5b600088888888888888886040516200023d9062000718565b6200025098979695949392919062000b55565b604051809103906000f0801580156200026d573d6000803e3d6000fd5b5090507fcf5aa6a9e2555018da074780aa0038bddd6593bdee0a31aab11b330de23dae6e8982604051620002a392919062000bd4565b60405180910390a1505050505050505050565b620002c06200064c565b73ffffffffffffffffffffffffffffffffffffffff16620002e06200048c565b73ffffffffffffffffffffffffffffffffffffffff161462000339576040517f08c379a0000000000000000000000000000000000000000000000000000000008152600401620003309062000c51565b60405180910390fd5b600080620003466200048c565b73ffffffffffffffffffffffffffffffffffffffff16476040516200036b9062000ca8565b60006040518083038185875af1925050503d8060008114620003aa576040519150601f19603f3d011682016040523d82523d6000602084013e620003af565b606091505b509150915081620003f7576040517f08c379a0000000000000000000000000000000000000000000000000000000008152600401620003ee9062000d0f565b60405180910390fd5b5050565b620004056200064c565b73ffffffffffffffffffffffffffffffffffffffff16620004256200048c565b73ffffffffffffffffffffffffffffffffffffffff16146200047e576040517f08c379a0000000000000000000000000000000000000000000000000000000008152600401620004759062000c51565b60405180910390fd5b6200048a600062000654565b565b60008060009054906101000a900473ffffffffffffffffffffffffffffffffffffffff16905090565b620004bf6200064c565b73ffffffffffffffffffffffffffffffffffffffff16620004df6200048c565b73ffffffffffffffffffffffffffffffffffffffff161462000538576040517f08c379a00000000000000000000000000000000000000000000000000000000081526004016200052f9062000c51565b60405180910390fd5b8060018190555050565b60015481565b620005526200064c565b73ffffffffffffffffffffffffffffffffffffffff16620005726200048c565b73ffffffffffffffffffffffffffffffffffffffff1614620005cb576040517f08c379a0000000000000000000000000000000000000000000000000000000008152600401620005c29062000c51565b60405180910390fd5b600073ffffffffffffffffffffffffffffffffffffffff168173ffffffffffffffffffffffffffffffffffffffff1614156200063e576040517f08c379a0000000000000000000000000000000000000000000000000000000008152600401620006359062000da7565b60405180910390fd5b620006498162000654565b50565b600033905090565b60008060009054906101000a900473ffffffffffffffffffffffffffffffffffffffff169050816000806101000a81548173ffffffffffffffffffffffffffffffffffffffff021916908373ffffffffffffffffffffffffffffffffffffffff1602179055508173ffffffffffffffffffffffffffffffffffffffff168173ffffffffffffffffffffffffffffffffffffffff167f8be0079c531659141344cd1fd0a4f28419497f9722a3daafe3b4186f6b6457e060405160405180910390a35050565b6125e28062000dca83390190565b6000819050919050565b6200073b8162000726565b82525050565b600060208201905062000758600083018462000730565b92915050565b600080fd5b600080fd5b600073ffffffffffffffffffffffffffffffffffffffff82169050919050565b6000620007958262000768565b9050919050565b620007a78162000788565b8114620007b357600080fd5b50565b600081359050620007c7816200079c565b92915050565b620007d88162000726565b8114620007e457600080fd5b50565b600081359050620007f881620007cd565b92915050565b600080fd5b600080fd5b600080fd5b60008083601f840112620008265762000825620007fe565b5b8235905067ffffffffffffffff81111562000846576200084562000803565b5b60208301915083600182028301111562000865576200086462000808565b5b9250929050565b600060ff82169050919050565b62000884816200086c565b81146200089057600080fd5b50565b600081359050620008a48162000879565b92915050565b60008115159050919050565b620008c181620008aa565b8114620008cd57600080fd5b50565b600081359050620008e181620008b6565b92915050565b60008060008060008060008060c0898b0312156200090a57620009096200075e565b5b60006200091a8b828c01620007b6565b98505060206200092d8b828c01620007e7565b975050604089013567ffffffffffffffff81111562000951576200095062000763565b5b6200095f8b828c016200080d565b9650965050606089013567ffffffffffffffff81111562000985576200098462000763565b5b620009938b828c016200080d565b94509450506080620009a88b828c0162000893565b92505060a0620009bb8b828c01620008d0565b9150509295985092959890939650565b620009d68162000788565b82525050565b6000602082019050620009f36000830184620009cb565b92915050565b60006020828403121562000a125762000a116200075e565b5b600062000a2284828501620007e7565b91505092915050565b60006020828403121562000a445762000a436200075e565b5b600062000a5484828501620007b6565b91505092915050565b600082825260208201905092915050565b7f4572726f723a20496e73756666696369656e74207061796d656e740000000000600082015250565b600062000aa6601b8362000a5d565b915062000ab38262000a6e565b602082019050919050565b6000602082019050818103600083015262000ad98162000a97565b9050919050565b82818337600083830152505050565b6000601f19601f8301169050919050565b600062000b0e838562000a5d565b935062000b1d83858462000ae0565b62000b288362000aef565b840190509392505050565b62000b3e816200086c565b82525050565b62000b4f81620008aa565b82525050565b600060c08201905062000b6c600083018b620009cb565b62000b7b602083018a62000730565b818103604083015262000b9081888a62000b00565b9050818103606083015262000ba781868862000b00565b905062000bb8608083018562000b33565b62000bc760a083018462000b44565b9998505050505050505050565b600060408201905062000beb6000830185620009cb565b62000bfa6020830184620009cb565b9392505050565b7f4f776e61626c653a2063616c6c6572206973206e6f7420746865206f776e6572600082015250565b600062000c3960208362000a5d565b915062000c468262000c01565b602082019050919050565b6000602082019050818103600083015262000c6c8162000c2a565b9050919050565b600081905092915050565b50565b600062000c9060008362000c73565b915062000c9d8262000c7e565b600082019050919050565b600062000cb58262000c81565b9150819050919050565b7f7472616e73616374696f6e206661696c65640000000000000000000000000000600082015250565b600062000cf760128362000a5d565b915062000d048262000cbf565b602082019050919050565b6000602082019050818103600083015262000d2a8162000ce8565b9050919050565b7f4f776e61626c653a206e6577206f776e657220697320746865207a65726f206160008201527f6464726573730000000000000000000000000000000000000000000000000000602082015250565b600062000d8f60268362000a5d565b915062000d9c8262000d31565b604082019050919050565b6000602082019050818103600083015262000dc28162000d80565b905091905056fe60806040523480156200001157600080fd5b50604051620025e2380380620025e283398181016040528101906200003791906200060e565b8383816003908051906020019062000051929190620002a6565b5080600490805190602001906200006a929190620002a6565b50505085600560006101000a81548173ffffffffffffffffffffffffffffffffffffffff021916908373ffffffffffffffffffffffffffffffffffffffff16021790555081600560146101000a81548160ff021916908360ff16021790555080600560156101000a81548160ff02191690831515021790555062000117600560009054906101000a900473ffffffffffffffffffffffffffffffffffffffff16866200012360201b60201c565b5050505050506200088a565b600073ffffffffffffffffffffffffffffffffffffffff168273ffffffffffffffffffffffffffffffffffffffff16141562000196576040517f08c379a00000000000000000000000000000000000000000000000000000000081526004016200018d9062000749565b60405180910390fd5b620001aa600083836200029c60201b60201c565b8060026000828254620001be91906200079a565b92505081905550806000808473ffffffffffffffffffffffffffffffffffffffff1673ffffffffffffffffffffffffffffffffffffffff16815260200190815260200160002060008282546200021591906200079a565b925050819055508173ffffffffffffffffffffffffffffffffffffffff16600073ffffffffffffffffffffffffffffffffffffffff167fddf252ad1be2c89b69c2b068fc378daa952ba7f163c4a11628f55a4df523b3ef836040516200027c919062000808565b60405180910390a36200029860008383620002a160201b60201c565b5050565b505050565b505050565b828054620002b49062000854565b90600052602060002090601f016020900481019282620002d8576000855562000324565b82601f10620002f357805160ff191683800117855562000324565b8280016001018555821562000324579182015b828111156200032357825182559160200191906001019062000306565b5b50905062000333919062000337565b5090565b5b808211156200035257600081600090555060010162000338565b5090565b6000604051905090565b600080fd5b600080fd5b600073ffffffffffffffffffffffffffffffffffffffff82169050919050565b600062000397826200036a565b9050919050565b620003a9816200038a565b8114620003b557600080fd5b50565b600081519050620003c9816200039e565b92915050565b6000819050919050565b620003e481620003cf565b8114620003f057600080fd5b50565b6000815190506200040481620003d9565b92915050565b600080fd5b600080fd5b6000601f19601f8301169050919050565b7f4e487b7100000000000000000000000000000000000000000000000000000000600052604160045260246000fd5b6200045f8262000414565b810181811067ffffffffffffffff8211171562000481576200048062000425565b5b80604052505050565b60006200049662000356565b9050620004a4828262000454565b919050565b600067ffffffffffffffff821115620004c757620004c662000425565b5b620004d28262000414565b9050602081019050919050565b60005b83811015620004ff578082015181840152602081019050620004e2565b838111156200050f576000848401525b50505050565b60006200052c6200052684620004a9565b6200048a565b9050828152602081018484840111156200054b576200054a6200040f565b5b62000558848285620004df565b509392505050565b600082601f8301126200057857620005776200040a565b5b81516200058a84826020860162000515565b91505092915050565b600060ff82169050919050565b620005ab8162000593565b8114620005b757600080fd5b50565b600081519050620005cb81620005a0565b92915050565b60008115159050919050565b620005e881620005d1565b8114620005f457600080fd5b50565b6000815190506200060881620005dd565b92915050565b60008060008060008060c087890312156200062e576200062d62000360565b5b60006200063e89828a01620003b8565b96505060206200065189828a01620003f3565b955050604087015167ffffffffffffffff81111562000675576200067462000365565b5b6200068389828a0162000560565b945050606087015167ffffffffffffffff811115620006a757620006a662000365565b5b620006b589828a0162000560565b9350506080620006c889828a01620005ba565b92505060a0620006db89828a01620005f7565b9150509295509295509295565b600082825260208201905092915050565b7f45524332303a206d696e7420746f20746865207a65726f206164647265737300600082015250565b600062000731601f83620006e8565b91506200073e82620006f9565b602082019050919050565b60006020820190508181036000830152620007648162000722565b9050919050565b7f4e487b7100000000000000000000000000000000000000000000000000000000600052601160045260246000fd5b6000620007a782620003cf565b9150620007b483620003cf565b9250827fffffffffffffffffffffffffffffffffffffffffffffffffffffffffffffffff03821115620007ec57620007eb6200076b565b5b828201905092915050565b6200080281620003cf565b82525050565b60006020820190506200081f6000830184620007f7565b92915050565b7f4e487b7100000000000000000000000000000000000000000000000000000000600052602260045260246000fd5b600060028204905060018216806200086d57607f821691505b6020821081141562000884576200088362000825565b5b50919050565b611d48806200089a6000396000f3fe608060405234801561001057600080fd5b506004361061010b5760003560e01c80634bf365df116100a257806395d89b411161007157806395d89b41146102ba578063a0712d68146102d8578063a457c2d7146102f4578063a9059cbb14610324578063dd62ed3e146103545761010b565b80634bf365df1461023257806370a082311461025057806379cc6790146102805780638da5cb5b1461029c5761010b565b8063313ce567116100de578063313ce567146101ac57806339509351146101ca57806342966c68146101fa578063449a52f8146102165761010b565b806306fdde0314610110578063095ea7b31461012e57806318160ddd1461015e57806323b872dd1461017c575b600080fd5b610118610384565b60405161012591906112c3565b60405180910390f35b6101486004803603810190610143919061137e565b610416565b60405161015591906113d9565b60405180910390f35b610166610439565b6040516101739190611403565b60405180910390f35b6101966004803603810190610191919061141e565b610443565b6040516101a391906113d9565b60405180910390f35b6101b4610472565b6040516101c1919061148d565b60405180910390f35b6101e460048036038101906101df919061137e565b610489565b6040516101f191906113d9565b60405180910390f35b610214600480360381019061020f91906114a8565b610533565b005b610230600480360381019061022b919061137e565b610547565b005b61023a610634565b60405161024791906113d9565b60405180910390f35b61026a600480360381019061026591906114d5565b610647565b6040516102779190611403565b60405180910390f35b61029a6004803603810190610295919061137e565b61068f565b005b6102a46106af565b6040516102b19190611511565b60405180910390f35b6102c26106d5565b6040516102cf91906112c3565b60405180910390f35b6102f260048036038101906102ed91906114a8565b610767565b005b61030e6004803603810190610309919061137e565b610875565b60405161031b91906113d9565b60405180910390f35b61033e6004803603810190610339919061137e565b61095f565b60405161034b91906113d9565b60405180910390f35b61036e6004803603810190610369919061152c565b610982565b60405161037b9190611403565b60405180910390f35b6060600380546103939061159b565b80601f01602080910402602001604051908101604052809291908181526020018280546103bf9061159b565b801561040c5780601f106103e15761010080835404028352916020019161040c565b820191906000526020600020905b8154815290600101906020018083116103ef57829003601f168201915b5050505050905090565b600080610421610a09565b905061042e818585610a11565b600191505092915050565b6000600254905090565b60008061044e610a09565b905061045b858285610bdc565b610466858585610c68565b60019150509392505050565b6000600560149054906101000a900460ff16905090565b600080610494610a09565b9050610528818585600160008673ffffffffffffffffffffffffffffffffffffffff1673ffffffffffffffffffffffffffffffffffffffff16815260200190815260200160002060008973ffffffffffffffffffffffffffffffffffffffff1673ffffffffffffffffffffffffffffffffffffffff1681526020019081526020016000205461052391906115fc565b610a11565b600191505092915050565b61054461053e610a09565b82610ee9565b50565b600560009054906101000a900473ffffffffffffffffffffffffffffffffffffffff1673ffffffffffffffffffffffffffffffffffffffff163373ffffffffffffffffffffffffffffffffffffffff16146105d7576040517f08c379a00000000000000000000000000000000000000000000000000000000081526004016105ce906116c4565b60405180910390fd5b600560159054906101000a900460ff16610626576040517f08c379a000000000000000000000000000000000000000000000000000000000815260040161061d90611756565b60405180910390fd5b61063082826110c0565b5050565b600560159054906101000a900460ff1681565b60008060008373ffffffffffffffffffffffffffffffffffffffff1673ffffffffffffffffffffffffffffffffffffffff168152602001908152602001600020549050919050565b6106a18261069b610a09565b83610bdc565b6106ab8282610ee9565b5050565b600560009054906101000a900473ffffffffffffffffffffffffffffffffffffffff1681565b6060600480546106e49061159b565b80601f01602080910402602001604051908101604052809291908181526020018280546107109061159b565b801561075d5780601f106107325761010080835404028352916020019161075d565b820191906000526020600020905b81548152906001019060200180831161074057829003601f168201915b5050505050905090565b600560009054906101000a900473ffffffffffffffffffffffffffffffffffffffff1673ffffffffffffffffffffffffffffffffffffffff163373ffffffffffffffffffffffffffffffffffffffff16146107f7576040517f08c379a00000000000000000000000000000000000000000000000000000000081526004016107ee906116c4565b60405180910390fd5b600560159054906101000a900460ff16610846576040517f08c379a000000000000000000000000000000000000000000000000000000000815260040161083d90611756565b60405180910390fd5b610872600560009054906101000a900473ffffffffffffffffffffffffffffffffffffffff16826110c0565b50565b600080610880610a09565b90506000600160008373ffffffffffffffffffffffffffffffffffffffff1673ffffffffffffffffffffffffffffffffffffffff16815260200190815260200160002060008673ffffffffffffffffffffffffffffffffffffffff1673ffffffffffffffffffffffffffffffffffffffff16815260200190815260200160002054905083811015610946576040517f08c379a000000000000000000000000000000000000000000000000000000000815260040161093d906117e8565b60405180910390fd5b6109538286868403610a11565b60019250505092915050565b60008061096a610a09565b9050610977818585610c68565b600191505092915050565b6000600160008473ffffffffffffffffffffffffffffffffffffffff1673ffffffffffffffffffffffffffffffffffffffff16815260200190815260200160002060008373ffffffffffffffffffffffffffffffffffffffff1673ffffffffffffffffffffffffffffffffffffffff16815260200190815260200160002054905092915050565b600033905090565b600073ffffffffffffffffffffffffffffffffffffffff168373ffffffffffffffffffffffffffffffffffffffff161415610a81576040517f08c379a0000000000000000000000000000000000000000000000000000000008152600401610a789061187a565b60405180910390fd5b600073ffffffffffffffffffffffffffffffffffffffff168273ffffffffffffffffffffffffffffffffffffffff161415610af1576040517f08c379a0000000000000000000000000000000000000000000000000000000008152600401610ae89061190c565b60405180910390fd5b80600160008573ffffffffffffffffffffffffffffffffffffffff1673ffffffffffffffffffffffffffffffffffffffff16815260200190815260200160002060008473ffffffffffffffffffffffffffffffffffffffff1673ffffffffffffffffffffffffffffffffffffffff168152602001908152602001600020819055508173ffffffffffffffffffffffffffffffffffffffff168373ffffffffffffffffffffffffffffffffffffffff167f8c5be1e5ebec7d5bd14f71427d1e84f3dd0314c0f7b2291e5b200ac8c7c3b92583604051610bcf9190611403565b60405180910390a3505050565b6000610be88484610982565b90507fffffffffffffffffffffffffffffffffffffffffffffffffffffffffffffffff8114610c625781811015610c54576040517f08c379a0000000000000000000000000000000000000000000000000000000008152600401610c4b90611978565b60405180910390fd5b610c618484848403610a11565b5b50505050565b600073ffffffffffffffffffffffffffffffffffffffff168373ffffffffffffffffffffffffffffffffffffffff161415610cd8576040517f08c379a0000000000000000000000000000000000000000000000000000000008152600401610ccf90611a0a565b60405180910390fd5b600073ffffffffffffffffffffffffffffffffffffffff168273ffffffffffffffffffffffffffffffffffffffff161415610d48576040517f08c379a0000000000000000000000000000000000000000000000000000000008152600401610d3f90611a9c565b60405180910390fd5b610d53838383611220565b60008060008573ffffffffffffffffffffffffffffffffffffffff1673ffffffffffffffffffffffffffffffffffffffff16815260200190815260200160002054905081811015610dd9576040517f08c379a0000000000000000000000000000000000000000000000000000000008152600401610dd090611b2e565b60405180910390fd5b8181036000808673ffffffffffffffffffffffffffffffffffffffff1673ffffffffffffffffffffffffffffffffffffffff16815260200190815260200160002081905550816000808573ffffffffffffffffffffffffffffffffffffffff1673ffffffffffffffffffffffffffffffffffffffff1681526020019081526020016000206000828254610e6c91906115fc565b925050819055508273ffffffffffffffffffffffffffffffffffffffff168473ffffffffffffffffffffffffffffffffffffffff167fddf252ad1be2c89b69c2b068fc378daa952ba7f163c4a11628f55a4df523b3ef84604051610ed09190611403565b60405180910390a3610ee3848484611225565b50505050565b600073ffffffffffffffffffffffffffffffffffffffff168273ffffffffffffffffffffffffffffffffffffffff161415610f59576040517f08c379a0000000000000000000000000000000000000000000000000000000008152600401610f5090611bc0565b60405180910390fd5b610f6582600083611220565b60008060008473ffffffffffffffffffffffffffffffffffffffff1673ffffffffffffffffffffffffffffffffffffffff16815260200190815260200160002054905081811015610feb576040517f08c379a0000000000000000000000000000000000000000000000000000000008152600401610fe290611c52565b60405180910390fd5b8181036000808573ffffffffffffffffffffffffffffffffffffffff1673ffffffffffffffffffffffffffffffffffffffff1681526020019081526020016000208190555081600260008282546110429190611c72565b92505081905550600073ffffffffffffffffffffffffffffffffffffffff168373ffffffffffffffffffffffffffffffffffffffff167fddf252ad1be2c89b69c2b068fc378daa952ba7f163c4a11628f55a4df523b3ef846040516110a79190611403565b60405180910390a36110bb83600084611225565b505050565b600073ffffffffffffffffffffffffffffffffffffffff168273ffffffffffffffffffffffffffffffffffffffff161415611130576040517f08c379a000000000000000000000000000000000000000000000000000000000815260040161112790611cf2565b60405180910390fd5b61113c60008383611220565b806002600082825461114e91906115fc565b92505081905550806000808473ffffffffffffffffffffffffffffffffffffffff1673ffffffffffffffffffffffffffffffffffffffff16815260200190815260200160002060008282546111a391906115fc565b925050819055508173ffffffffffffffffffffffffffffffffffffffff16600073ffffffffffffffffffffffffffffffffffffffff167fddf252ad1be2c89b69c2b068fc378daa952ba7f163c4a11628f55a4df523b3ef836040516112089190611403565b60405180910390a361121c60008383611225565b5050565b505050565b505050565b600081519050919050565b600082825260208201905092915050565b60005b83811015611264578082015181840152602081019050611249565b83811115611273576000848401525b50505050565b6000601f19601f8301169050919050565b60006112958261122a565b61129f8185611235565b93506112af818560208601611246565b6112b881611279565b840191505092915050565b600060208201905081810360008301526112dd818461128a565b905092915050565b600080fd5b600073ffffffffffffffffffffffffffffffffffffffff82169050919050565b6000611315826112ea565b9050919050565b6113258161130a565b811461133057600080fd5b50565b6000813590506113428161131c565b92915050565b6000819050919050565b61135b81611348565b811461136657600080fd5b50565b60008135905061137881611352565b92915050565b60008060408385031215611395576113946112e5565b5b60006113a385828601611333565b92505060206113b485828601611369565b9150509250929050565b60008115159050919050565b6113d3816113be565b82525050565b60006020820190506113ee60008301846113ca565b92915050565b6113fd81611348565b82525050565b600060208201905061141860008301846113f4565b92915050565b600080600060608486031215611437576114366112e5565b5b600061144586828701611333565b935050602061145686828701611333565b925050604061146786828701611369565b9150509250925092565b600060ff82169050919050565b61148781611471565b82525050565b60006020820190506114a2600083018461147e565b92915050565b6000602082840312156114be576114bd6112e5565b5b60006114cc84828501611369565b91505092915050565b6000602082840312156114eb576114ea6112e5565b5b60006114f984828501611333565b91505092915050565b61150b8161130a565b82525050565b60006020820190506115266000830184611502565b92915050565b60008060408385031215611543576115426112e5565b5b600061155185828601611333565b925050602061156285828601611333565b9150509250929050565b7f4e487b7100000000000000000000000000000000000000000000000000000000600052602260045260246000fd5b600060028204905060018216806115b357607f821691505b602082108114156115c7576115c661156c565b5b50919050565b7f4e487b7100000000000000000000000000000000000000000000000000000000600052601160045260246000fd5b600061160782611348565b915061161283611348565b9250827fffffffffffffffffffffffffffffffffffffffffffffffffffffffffffffffff03821115611647576116466115cd565b5b828201905092915050565b7f556e617574686f72697a65643a204e6f7420746865206f776e6572206163636f60008201527f756e740000000000000000000000000000000000000000000000000000000000602082015250565b60006116ae602383611235565b91506116b982611652565b604082019050919050565b600060208201905081810360008301526116dd816116a1565b9050919050565b7f556e617574686f72697a65643a204d696e74696e67206e6f7420616c6c6f776560008201527f6400000000000000000000000000000000000000000000000000000000000000602082015250565b6000611740602183611235565b915061174b826116e4565b604082019050919050565b6000602082019050818103600083015261176f81611733565b9050919050565b7f45524332303a2064656372656173656420616c6c6f77616e63652062656c6f7760008201527f207a65726f000000000000000000000000000000000000000000000000000000602082015250565b60006117d2602583611235565b91506117dd82611776565b604082019050919050565b60006020820190508181036000830152611801816117c5565b9050919050565b7f45524332303a20617070726f76652066726f6d20746865207a65726f2061646460008201527f7265737300000000000000000000000000000000000000000000000000000000602082015250565b6000611864602483611235565b915061186f82611808565b604082019050919050565b6000602082019050818103600083015261189381611857565b9050919050565b7f45524332303a20617070726f766520746f20746865207a65726f20616464726560008201527f7373000000000000000000000000000000000000000000000000000000000000602082015250565b60006118f6602283611235565b91506119018261189a565b604082019050919050565b60006020820190508181036000830152611925816118e9565b9050919050565b7f45524332303a20696e73756666696369656e7420616c6c6f77616e6365000000600082015250565b6000611962601d83611235565b915061196d8261192c565b602082019050919050565b6000602082019050818103600083015261199181611955565b9050919050565b7f45524332303a207472616e736665722066726f6d20746865207a65726f20616460008201527f6472657373000000000000000000000000000000000000000000000000000000602082015250565b60006119f4602583611235565b91506119ff82611998565b604082019050919050565b60006020820190508181036000830152611a23816119e7565b9050919050565b7f45524332303a207472616e7366657220746f20746865207a65726f206164647260008201527f6573730000000000000000000000000000000000000000000000000000000000602082015250565b6000611a86602383611235565b9150611a9182611a2a565b604082019050919050565b60006020820190508181036000830152611ab581611a79565b9050919050565b7f45524332303a207472616e7366657220616d6f756e742065786365656473206260008201527f616c616e63650000000000000000000000000000000000000000000000000000602082015250565b6000611b18602683611235565b9150611b2382611abc565b604082019050919050565b60006020820190508181036000830152611b4781611b0b565b9050919050565b7f45524332303a206275726e2066726f6d20746865207a65726f2061646472657360008201527f7300000000000000000000000000000000000000000000000000000000000000602082015250565b6000611baa602183611235565b9150611bb582611b4e565b604082019050919050565b60006020820190508181036000830152611bd981611b9d565b9050919050565b7f45524332303a206275726e20616d6f756e7420657863656564732062616c616e60008201527f6365000000000000000000000000000000000000000000000000000000000000602082015250565b6000611c3c602283611235565b9150611c4782611be0565b604082019050919050565b60006020820190508181036000830152611c6b81611c2f565b9050919050565b6000611c7d82611348565b9150611c8883611348565b925082821015611c9b57611c9a6115cd565b5b828203905092915050565b7f45524332303a206d696e7420746f20746865207a65726f206164647265737300600082015250565b6000611cdc601f83611235565b9150611ce782611ca6565b602082019050919050565b60006020820190508181036000830152611d0b81611ccf565b905091905056fea26469706673582212201b000743380117a9238240119b6c2aa08a33bb32867cb30ac512342a2e38e03564736f6c63430008090033a26469706673582212204a0d3ac61c151ccccb72d50c94d22fa2f30b6575e48bec285de1e8dcc8345fdb64736f6c63430008090033",
  "linkReferences": {},
  "deployedLinkReferences": {}
}