{
  "_format": "hh-sol-artifact-1",
  "contractName": "CustomERC20Builder",
  "sourceName": "src/contracts/CustomERC20Builder.sol",
  "abi": [
    {
      "inputs": [],
      "stateMutability": "nonpayable",
      "type": "constructor"
    },
    {
      "anonymous": false,
      "inputs": [
        {
          "indexed": true,
          "internalType": "address",
          "name": "previousOwner",
          "type": "address"
        },
        {
          "indexed": true,
          "internalType": "address",
          "name": "newOwner",
          "type": "address"
        }
      ],
      "name": "OwnershipTransferred",
      "type": "event"
    },
    {
      "anonymous": false,
      "inputs": [
        {
          "indexed": true,
          "internalType": "address",
          "name": "ownerAddress",
          "type": "address"
        },
        {
          "indexed": true,
          "internalType": "address",
          "name": "tokenAddress",
          "type": "address"
        }
      ],
      "name": "TokenDeployment",
      "type": "event"
    },
    {
      "stateMutability": "payable",
      "type": "fallback"
    },
    {
      "inputs": [
        {
          "internalType": "address",
          "name": "_tokenOwner",
          "type": "address"
        },
        {
          "internalType": "uint256",
          "name": "_initialSupply",
          "type": "uint256"
        },
        {
          "internalType": "string",
          "name": "_name",
          "type": "string"
        },
        {
          "internalType": "string",
          "name": "_symbol",
          "type": "string"
        },
        {
          "internalType": "uint8",
          "name": "_decimals",
          "type": "uint8"
        }
      ],
      "name": "buildERC20",
      "outputs": [],
      "stateMutability": "payable",
      "type": "function"
    },
    {
      "inputs": [],
      "name": "getBalance",
      "outputs": [
        {
          "internalType": "uint256",
          "name": "",
          "type": "uint256"
        }
      ],
      "stateMutability": "view",
      "type": "function"
    },
    {
      "inputs": [],
      "name": "owner",
      "outputs": [
        {
          "internalType": "address",
          "name": "",
          "type": "address"
        }
      ],
      "stateMutability": "view",
      "type": "function"
    },
    {
      "inputs": [],
      "name": "price",
      "outputs": [
        {
          "internalType": "uint256",
          "name": "",
          "type": "uint256"
        }
      ],
      "stateMutability": "view",
      "type": "function"
    },
    {
      "inputs": [],
      "name": "renounceOwnership",
      "outputs": [],
      "stateMutability": "nonpayable",
      "type": "function"
    },
    {
      "inputs": [
        {
          "internalType": "uint256",
          "name": "_price",
          "type": "uint256"
        }
      ],
      "name": "setPrice",
      "outputs": [],
      "stateMutability": "nonpayable",
      "type": "function"
    },
    {
      "inputs": [
        {
          "internalType": "address",
          "name": "newOwner",
          "type": "address"
        }
      ],
      "name": "transferOwnership",
      "outputs": [],
      "stateMutability": "nonpayable",
      "type": "function"
    },
    {
      "inputs": [],
      "name": "withdraw",
      "outputs": [],
      "stateMutability": "nonpayable",
      "type": "function"
    },
    {
      "stateMutability": "payable",
      "type": "receive"
    }
  ],
  "bytecode": "0x608060405234801561001057600080fd5b5061002d61002261004060201b60201c565b61004860201b60201c565b66038d7ea4c6800060018190555061010c565b600033905090565b60008060009054906101000a900473ffffffffffffffffffffffffffffffffffffffff169050816000806101000a81548173ffffffffffffffffffffffffffffffffffffffff021916908373ffffffffffffffffffffffffffffffffffffffff1602179055508173ffffffffffffffffffffffffffffffffffffffff168173ffffffffffffffffffffffffffffffffffffffff167f8be0079c531659141344cd1fd0a4f28419497f9722a3daafe3b4186f6b6457e060405160405180910390a35050565b6134318061011b6000396000f3fe6080604052600436106200008b5760003560e01c806391b7f5ed116200005557806391b7f5ed1462000129578063a035b1fe1462000157578063cef088791462000187578063f2fde38b14620001a75762000093565b806312065fe014620000955780633ccfd60b14620000c5578063715018a614620000df5780638da5cb5b14620000f95762000093565b366200009357005b005b348015620000a257600080fd5b50620000ad620001d5565b604051620000bc91906200075d565b60405180910390f35b348015620000d257600080fd5b50620000dd620001dd565b005b348015620000ec57600080fd5b50620000f762000322565b005b3480156200010657600080fd5b5062000111620003b3565b604051620001209190620007bf565b60405180910390f35b3480156200013657600080fd5b506200015560048036038101906200014f919062000817565b620003dc565b005b3480156200016457600080fd5b506200016f62000469565b6040516200017e91906200075d565b60405180910390f35b620001a560048036038101906200019f919062000926565b6200046f565b005b348015620001b457600080fd5b50620001d36004803603810190620001cd9190620009f5565b62000564565b005b600047905090565b620001e762000668565b73ffffffffffffffffffffffffffffffffffffffff1662000207620003b3565b73ffffffffffffffffffffffffffffffffffffffff161462000260576040517f08c379a0000000000000000000000000000000000000000000000000000000008152600401620002579062000a88565b60405180910390fd5b6000806200026d620003b3565b73ffffffffffffffffffffffffffffffffffffffff1647604051620002929062000adf565b60006040518083038185875af1925050503d8060008114620002d1576040519150601f19603f3d011682016040523d82523d6000602084013e620002d6565b606091505b5091509150816200031e576040517f08c379a0000000000000000000000000000000000000000000000000000000008152600401620003159062000b46565b60405180910390fd5b5050565b6200032c62000668565b73ffffffffffffffffffffffffffffffffffffffff166200034c620003b3565b73ffffffffffffffffffffffffffffffffffffffff1614620003a5576040517f08c379a00000000000000000000000000000000000000000000000000000000081526004016200039c9062000a88565b60405180910390fd5b620003b1600062000670565b565b60008060009054906101000a900473ffffffffffffffffffffffffffffffffffffffff16905090565b620003e662000668565b73ffffffffffffffffffffffffffffffffffffffff1662000406620003b3565b73ffffffffffffffffffffffffffffffffffffffff16146200045f576040517f08c379a0000000000000000000000000000000000000000000000000000000008152600401620004569062000a88565b60405180910390fd5b8060018190555050565b60015481565b600154341015620004b7576040517f08c379a0000000000000000000000000000000000000000000000000000000008152600401620004ae9062000bb8565b60405180910390fd5b600087878787878787604051620004ce9062000734565b620004e0979695949392919062000c3e565b604051809103906000f080158015620004fd573d6000803e3d6000fd5b5090508073ffffffffffffffffffffffffffffffffffffffff168873ffffffffffffffffffffffffffffffffffffffff167fcf5aa6a9e2555018da074780aa0038bddd6593bdee0a31aab11b330de23dae6e60405160405180910390a35050505050505050565b6200056e62000668565b73ffffffffffffffffffffffffffffffffffffffff166200058e620003b3565b73ffffffffffffffffffffffffffffffffffffffff1614620005e7576040517f08c379a0000000000000000000000000000000000000000000000000000000008152600401620005de9062000a88565b60405180910390fd5b600073ffffffffffffffffffffffffffffffffffffffff168173ffffffffffffffffffffffffffffffffffffffff1614156200065a576040517f08c379a0000000000000000000000000000000000000000000000000000000008152600401620006519062000d23565b60405180910390fd5b620006658162000670565b50565b600033905090565b60008060009054906101000a900473ffffffffffffffffffffffffffffffffffffffff169050816000806101000a81548173ffffffffffffffffffffffffffffffffffffffff021916908373ffffffffffffffffffffffffffffffffffffffff1602179055508173ffffffffffffffffffffffffffffffffffffffff168173ffffffffffffffffffffffffffffffffffffffff167f8be0079c531659141344cd1fd0a4f28419497f9722a3daafe3b4186f6b6457e060405160405180910390a35050565b6126b68062000d4683390190565b6000819050919050565b620007578162000742565b82525050565b60006020820190506200077460008301846200074c565b92915050565b600073ffffffffffffffffffffffffffffffffffffffff82169050919050565b6000620007a7826200077a565b9050919050565b620007b9816200079a565b82525050565b6000602082019050620007d66000830184620007ae565b92915050565b600080fd5b600080fd5b620007f18162000742565b8114620007fd57600080fd5b50565b6000813590506200081181620007e6565b92915050565b60006020828403121562000830576200082f620007dc565b5b6000620008408482850162000800565b91505092915050565b62000854816200079a565b81146200086057600080fd5b50565b600081359050620008748162000849565b92915050565b600080fd5b600080fd5b600080fd5b60008083601f840112620008a257620008a16200087a565b5b8235905067ffffffffffffffff811115620008c257620008c16200087f565b5b602083019150836001820283011115620008e157620008e062000884565b5b9250929050565b600060ff82169050919050565b6200090081620008e8565b81146200090c57600080fd5b50565b6000813590506200092081620008f5565b92915050565b600080600080600080600060a0888a031215620009485762000947620007dc565b5b6000620009588a828b0162000863565b97505060206200096b8a828b0162000800565b965050604088013567ffffffffffffffff8111156200098f576200098e620007e1565b5b6200099d8a828b0162000889565b9550955050606088013567ffffffffffffffff811115620009c357620009c2620007e1565b5b620009d18a828b0162000889565b93509350506080620009e68a828b016200090f565b91505092959891949750929550565b60006020828403121562000a0e5762000a0d620007dc565b5b600062000a1e8482850162000863565b91505092915050565b600082825260208201905092915050565b7f4f776e61626c653a2063616c6c6572206973206e6f7420746865206f776e6572600082015250565b600062000a7060208362000a27565b915062000a7d8262000a38565b602082019050919050565b6000602082019050818103600083015262000aa38162000a61565b9050919050565b600081905092915050565b50565b600062000ac760008362000aaa565b915062000ad48262000ab5565b600082019050919050565b600062000aec8262000ab8565b9150819050919050565b7f7472616e73616374696f6e206661696c65640000000000000000000000000000600082015250565b600062000b2e60128362000a27565b915062000b3b8262000af6565b602082019050919050565b6000602082019050818103600083015262000b618162000b1f565b9050919050565b7f4572726f723a20496e73756666696369656e74207061796d656e740000000000600082015250565b600062000ba0601b8362000a27565b915062000bad8262000b68565b602082019050919050565b6000602082019050818103600083015262000bd38162000b91565b9050919050565b82818337600083830152505050565b6000601f19601f8301169050919050565b600062000c08838562000a27565b935062000c1783858462000bda565b62000c228362000be9565b840190509392505050565b62000c3881620008e8565b82525050565b600060a08201905062000c55600083018a620007ae565b62000c6460208301896200074c565b818103604083015262000c7981878962000bfa565b9050818103606083015262000c9081858762000bfa565b905062000ca1608083018462000c2d565b98975050505050505050565b7f4f776e61626c653a206e6577206f776e657220697320746865207a65726f206160008201527f6464726573730000000000000000000000000000000000000000000000000000602082015250565b600062000d0b60268362000a27565b915062000d188262000cad565b604082019050919050565b6000602082019050818103600083015262000d3e8162000cfc565b905091905056fe60806040523480156200001157600080fd5b50604051620026b6380380620026b68339818101604052810190620000379190620007a1565b828281600390805190602001906200005192919062000476565b5080600490805190602001906200006a92919062000476565b5050506200008d62000081620000e560201b60201c565b620000ed60201b60201c565b6200009e85620001b360201b60201c565b80600560146101000a81548160ff021916908360ff160217905550620000da620000cd620002c960201b60201c565b85620002f360201b60201c565b505050505062000b13565b600033905090565b6000600560009054906101000a900473ffffffffffffffffffffffffffffffffffffffff16905081600560006101000a81548173ffffffffffffffffffffffffffffffffffffffff021916908373ffffffffffffffffffffffffffffffffffffffff1602179055508173ffffffffffffffffffffffffffffffffffffffff168173ffffffffffffffffffffffffffffffffffffffff167f8be0079c531659141344cd1fd0a4f28419497f9722a3daafe3b4186f6b6457e060405160405180910390a35050565b620001c3620000e560201b60201c565b73ffffffffffffffffffffffffffffffffffffffff16620001e9620002c960201b60201c565b73ffffffffffffffffffffffffffffffffffffffff161462000242576040517f08c379a00000000000000000000000000000000000000000000000000000000081526004016200023990620008c8565b60405180910390fd5b600073ffffffffffffffffffffffffffffffffffffffff168173ffffffffffffffffffffffffffffffffffffffff161415620002b5576040517f08c379a0000000000000000000000000000000000000000000000000000000008152600401620002ac9062000960565b60405180910390fd5b620002c681620000ed60201b60201c565b50565b6000600560009054906101000a900473ffffffffffffffffffffffffffffffffffffffff16905090565b600073ffffffffffffffffffffffffffffffffffffffff168273ffffffffffffffffffffffffffffffffffffffff16141562000366576040517f08c379a00000000000000000000000000000000000000000000000000000000081526004016200035d90620009d2565b60405180910390fd5b6200037a600083836200046c60201b60201c565b80600260008282546200038e919062000a23565b92505081905550806000808473ffffffffffffffffffffffffffffffffffffffff1673ffffffffffffffffffffffffffffffffffffffff1681526020019081526020016000206000828254620003e5919062000a23565b925050819055508173ffffffffffffffffffffffffffffffffffffffff16600073ffffffffffffffffffffffffffffffffffffffff167fddf252ad1be2c89b69c2b068fc378daa952ba7f163c4a11628f55a4df523b3ef836040516200044c919062000a91565b60405180910390a362000468600083836200047160201b60201c565b5050565b505050565b505050565b828054620004849062000add565b90600052602060002090601f016020900481019282620004a85760008555620004f4565b82601f10620004c357805160ff1916838001178555620004f4565b82800160010185558215620004f4579182015b82811115620004f3578251825591602001919060010190620004d6565b5b50905062000503919062000507565b5090565b5b808211156200052257600081600090555060010162000508565b5090565b6000604051905090565b600080fd5b600080fd5b600073ffffffffffffffffffffffffffffffffffffffff82169050919050565b600062000567826200053a565b9050919050565b62000579816200055a565b81146200058557600080fd5b50565b60008151905062000599816200056e565b92915050565b6000819050919050565b620005b4816200059f565b8114620005c057600080fd5b50565b600081519050620005d481620005a9565b92915050565b600080fd5b600080fd5b6000601f19601f8301169050919050565b7f4e487b7100000000000000000000000000000000000000000000000000000000600052604160045260246000fd5b6200062f82620005e4565b810181811067ffffffffffffffff82111715620006515762000650620005f5565b5b80604052505050565b60006200066662000526565b905062000674828262000624565b919050565b600067ffffffffffffffff821115620006975762000696620005f5565b5b620006a282620005e4565b9050602081019050919050565b60005b83811015620006cf578082015181840152602081019050620006b2565b83811115620006df576000848401525b50505050565b6000620006fc620006f68462000679565b6200065a565b9050828152602081018484840111156200071b576200071a620005df565b5b62000728848285620006af565b509392505050565b600082601f830112620007485762000747620005da565b5b81516200075a848260208601620006e5565b91505092915050565b600060ff82169050919050565b6200077b8162000763565b81146200078757600080fd5b50565b6000815190506200079b8162000770565b92915050565b600080600080600060a08688031215620007c057620007bf62000530565b5b6000620007d08882890162000588565b9550506020620007e388828901620005c3565b945050604086015167ffffffffffffffff81111562000807576200080662000535565b5b620008158882890162000730565b935050606086015167ffffffffffffffff81111562000839576200083862000535565b5b620008478882890162000730565b92505060806200085a888289016200078a565b9150509295509295909350565b600082825260208201905092915050565b7f4f776e61626c653a2063616c6c6572206973206e6f7420746865206f776e6572600082015250565b6000620008b060208362000867565b9150620008bd8262000878565b602082019050919050565b60006020820190508181036000830152620008e381620008a1565b9050919050565b7f4f776e61626c653a206e6577206f776e657220697320746865207a65726f206160008201527f6464726573730000000000000000000000000000000000000000000000000000602082015250565b60006200094860268362000867565b91506200095582620008ea565b604082019050919050565b600060208201905081810360008301526200097b8162000939565b9050919050565b7f45524332303a206d696e7420746f20746865207a65726f206164647265737300600082015250565b6000620009ba601f8362000867565b9150620009c78262000982565b602082019050919050565b60006020820190508181036000830152620009ed81620009ab565b9050919050565b7f4e487b7100000000000000000000000000000000000000000000000000000000600052601160045260246000fd5b600062000a30826200059f565b915062000a3d836200059f565b9250827fffffffffffffffffffffffffffffffffffffffffffffffffffffffffffffffff0382111562000a755762000a74620009f4565b5b828201905092915050565b62000a8b816200059f565b82525050565b600060208201905062000aa8600083018462000a80565b92915050565b7f4e487b7100000000000000000000000000000000000000000000000000000000600052602260045260246000fd5b6000600282049050600182168062000af657607f821691505b6020821081141562000b0d5762000b0c62000aae565b5b50919050565b611b938062000b236000396000f3fe608060405234801561001057600080fd5b506004361061010b5760003560e01c8063715018a6116100a2578063a457c2d711610071578063a457c2d7146102a8578063a9059cbb146102d8578063b3bcfa8214610308578063dd62ed3e14610326578063f2fde38b146103565761010b565b8063715018a61461024657806379cc6790146102505780638da5cb5b1461026c57806395d89b411461028a5761010b565b8063313ce567116100de578063313ce567146101ac57806339509351146101ca57806342966c68146101fa57806370a08231146102165761010b565b806306fdde0314610110578063095ea7b31461012e57806318160ddd1461015e57806323b872dd1461017c575b600080fd5b610118610372565b60405161012591906111a0565b60405180910390f35b6101486004803603810190610143919061125b565b610404565b60405161015591906112b6565b60405180910390f35b610166610427565b60405161017391906112e0565b60405180910390f35b610196600480360381019061019191906112fb565b610431565b6040516101a391906112b6565b60405180910390f35b6101b4610460565b6040516101c1919061136a565b60405180910390f35b6101e460048036038101906101df919061125b565b610477565b6040516101f191906112b6565b60405180910390f35b610214600480360381019061020f9190611385565b610521565b005b610230600480360381019061022b91906113b2565b610535565b60405161023d91906112e0565b60405180910390f35b61024e61057d565b005b61026a6004803603810190610265919061125b565b610605565b005b610274610625565b60405161028191906113ee565b60405180910390f35b61029261064f565b60405161029f91906111a0565b60405180910390f35b6102c260048036038101906102bd919061125b565b6106e1565b6040516102cf91906112b6565b60405180910390f35b6102f260048036038101906102ed919061125b565b6107cb565b6040516102ff91906112b6565b60405180910390f35b6103106107ee565b60405161031d919061136a565b60405180910390f35b610340600480360381019061033b9190611409565b610801565b60405161034d91906112e0565b60405180910390f35b610370600480360381019061036b91906113b2565b610888565b005b60606003805461038190611478565b80601f01602080910402602001604051908101604052809291908181526020018280546103ad90611478565b80156103fa5780601f106103cf576101008083540402835291602001916103fa565b820191906000526020600020905b8154815290600101906020018083116103dd57829003601f168201915b5050505050905090565b60008061040f610980565b905061041c818585610988565b600191505092915050565b6000600254905090565b60008061043c610980565b9050610449858285610b53565b610454858585610bdf565b60019150509392505050565b6000600560149054906101000a900460ff16905090565b600080610482610980565b9050610516818585600160008673ffffffffffffffffffffffffffffffffffffffff1673ffffffffffffffffffffffffffffffffffffffff16815260200190815260200160002060008973ffffffffffffffffffffffffffffffffffffffff1673ffffffffffffffffffffffffffffffffffffffff1681526020019081526020016000205461051191906114d9565b610988565b600191505092915050565b61053261052c610980565b82610e60565b50565b60008060008373ffffffffffffffffffffffffffffffffffffffff1673ffffffffffffffffffffffffffffffffffffffff168152602001908152602001600020549050919050565b610585610980565b73ffffffffffffffffffffffffffffffffffffffff166105a3610625565b73ffffffffffffffffffffffffffffffffffffffff16146105f9576040517f08c379a00000000000000000000000000000000000000000000000000000000081526004016105f09061157b565b60405180910390fd5b6106036000611037565b565b61061782610611610980565b83610b53565b6106218282610e60565b5050565b6000600560009054906101000a900473ffffffffffffffffffffffffffffffffffffffff16905090565b60606004805461065e90611478565b80601f016020809104026020016040519081016040528092919081815260200182805461068a90611478565b80156106d75780601f106106ac576101008083540402835291602001916106d7565b820191906000526020600020905b8154815290600101906020018083116106ba57829003601f168201915b5050505050905090565b6000806106ec610980565b90506000600160008373ffffffffffffffffffffffffffffffffffffffff1673ffffffffffffffffffffffffffffffffffffffff16815260200190815260200160002060008673ffffffffffffffffffffffffffffffffffffffff1673ffffffffffffffffffffffffffffffffffffffff168152602001908152602001600020549050838110156107b2576040517f08c379a00000000000000000000000000000000000000000000000000000000081526004016107a99061160d565b60405180910390fd5b6107bf8286868403610988565b60019250505092915050565b6000806107d6610980565b90506107e3818585610bdf565b600191505092915050565b600560149054906101000a900460ff1681565b6000600160008473ffffffffffffffffffffffffffffffffffffffff1673ffffffffffffffffffffffffffffffffffffffff16815260200190815260200160002060008373ffffffffffffffffffffffffffffffffffffffff1673ffffffffffffffffffffffffffffffffffffffff16815260200190815260200160002054905092915050565b610890610980565b73ffffffffffffffffffffffffffffffffffffffff166108ae610625565b73ffffffffffffffffffffffffffffffffffffffff1614610904576040517f08c379a00000000000000000000000000000000000000000000000000000000081526004016108fb9061157b565b60405180910390fd5b600073ffffffffffffffffffffffffffffffffffffffff168173ffffffffffffffffffffffffffffffffffffffff161415610974576040517f08c379a000000000000000000000000000000000000000000000000000000000815260040161096b9061169f565b60405180910390fd5b61097d81611037565b50565b600033905090565b600073ffffffffffffffffffffffffffffffffffffffff168373ffffffffffffffffffffffffffffffffffffffff1614156109f8576040517f08c379a00000000000000000000000000000000000000000000000000000000081526004016109ef90611731565b60405180910390fd5b600073ffffffffffffffffffffffffffffffffffffffff168273ffffffffffffffffffffffffffffffffffffffff161415610a68576040517f08c379a0000000000000000000000000000000000000000000000000000000008152600401610a5f906117c3565b60405180910390fd5b80600160008573ffffffffffffffffffffffffffffffffffffffff1673ffffffffffffffffffffffffffffffffffffffff16815260200190815260200160002060008473ffffffffffffffffffffffffffffffffffffffff1673ffffffffffffffffffffffffffffffffffffffff168152602001908152602001600020819055508173ffffffffffffffffffffffffffffffffffffffff168373ffffffffffffffffffffffffffffffffffffffff167f8c5be1e5ebec7d5bd14f71427d1e84f3dd0314c0f7b2291e5b200ac8c7c3b92583604051610b4691906112e0565b60405180910390a3505050565b6000610b5f8484610801565b90507fffffffffffffffffffffffffffffffffffffffffffffffffffffffffffffffff8114610bd95781811015610bcb576040517f08c379a0000000000000000000000000000000000000000000000000000000008152600401610bc29061182f565b60405180910390fd5b610bd88484848403610988565b5b50505050565b600073ffffffffffffffffffffffffffffffffffffffff168373ffffffffffffffffffffffffffffffffffffffff161415610c4f576040517f08c379a0000000000000000000000000000000000000000000000000000000008152600401610c46906118c1565b60405180910390fd5b600073ffffffffffffffffffffffffffffffffffffffff168273ffffffffffffffffffffffffffffffffffffffff161415610cbf576040517f08c379a0000000000000000000000000000000000000000000000000000000008152600401610cb690611953565b60405180910390fd5b610cca8383836110fd565b60008060008573ffffffffffffffffffffffffffffffffffffffff1673ffffffffffffffffffffffffffffffffffffffff16815260200190815260200160002054905081811015610d50576040517f08c379a0000000000000000000000000000000000000000000000000000000008152600401610d47906119e5565b60405180910390fd5b8181036000808673ffffffffffffffffffffffffffffffffffffffff1673ffffffffffffffffffffffffffffffffffffffff16815260200190815260200160002081905550816000808573ffffffffffffffffffffffffffffffffffffffff1673ffffffffffffffffffffffffffffffffffffffff1681526020019081526020016000206000828254610de391906114d9565b925050819055508273ffffffffffffffffffffffffffffffffffffffff168473ffffffffffffffffffffffffffffffffffffffff167fddf252ad1be2c89b69c2b068fc378daa952ba7f163c4a11628f55a4df523b3ef84604051610e4791906112e0565b60405180910390a3610e5a848484611102565b50505050565b600073ffffffffffffffffffffffffffffffffffffffff168273ffffffffffffffffffffffffffffffffffffffff161415610ed0576040517f08c379a0000000000000000000000000000000000000000000000000000000008152600401610ec790611a77565b60405180910390fd5b610edc826000836110fd565b60008060008473ffffffffffffffffffffffffffffffffffffffff1673ffffffffffffffffffffffffffffffffffffffff16815260200190815260200160002054905081811015610f62576040517f08c379a0000000000000000000000000000000000000000000000000000000008152600401610f5990611b09565b60405180910390fd5b8181036000808573ffffffffffffffffffffffffffffffffffffffff1673ffffffffffffffffffffffffffffffffffffffff168152602001908152602001600020819055508160026000828254610fb99190611b29565b92505081905550600073ffffffffffffffffffffffffffffffffffffffff168373ffffffffffffffffffffffffffffffffffffffff167fddf252ad1be2c89b69c2b068fc378daa952ba7f163c4a11628f55a4df523b3ef8460405161101e91906112e0565b60405180910390a361103283600084611102565b505050565b6000600560009054906101000a900473ffffffffffffffffffffffffffffffffffffffff16905081600560006101000a81548173ffffffffffffffffffffffffffffffffffffffff021916908373ffffffffffffffffffffffffffffffffffffffff1602179055508173ffffffffffffffffffffffffffffffffffffffff168173ffffffffffffffffffffffffffffffffffffffff167f8be0079c531659141344cd1fd0a4f28419497f9722a3daafe3b4186f6b6457e060405160405180910390a35050565b505050565b505050565b600081519050919050565b600082825260208201905092915050565b60005b83811015611141578082015181840152602081019050611126565b83811115611150576000848401525b50505050565b6000601f19601f8301169050919050565b600061117282611107565b61117c8185611112565b935061118c818560208601611123565b61119581611156565b840191505092915050565b600060208201905081810360008301526111ba8184611167565b905092915050565b600080fd5b600073ffffffffffffffffffffffffffffffffffffffff82169050919050565b60006111f2826111c7565b9050919050565b611202816111e7565b811461120d57600080fd5b50565b60008135905061121f816111f9565b92915050565b6000819050919050565b61123881611225565b811461124357600080fd5b50565b6000813590506112558161122f565b92915050565b60008060408385031215611272576112716111c2565b5b600061128085828601611210565b925050602061129185828601611246565b9150509250929050565b60008115159050919050565b6112b08161129b565b82525050565b60006020820190506112cb60008301846112a7565b92915050565b6112da81611225565b82525050565b60006020820190506112f560008301846112d1565b92915050565b600080600060608486031215611314576113136111c2565b5b600061132286828701611210565b935050602061133386828701611210565b925050604061134486828701611246565b9150509250925092565b600060ff82169050919050565b6113648161134e565b82525050565b600060208201905061137f600083018461135b565b92915050565b60006020828403121561139b5761139a6111c2565b5b60006113a984828501611246565b91505092915050565b6000602082840312156113c8576113c76111c2565b5b60006113d684828501611210565b91505092915050565b6113e8816111e7565b82525050565b600060208201905061140360008301846113df565b92915050565b600080604083850312156114205761141f6111c2565b5b600061142e85828601611210565b925050602061143f85828601611210565b9150509250929050565b7f4e487b7100000000000000000000000000000000000000000000000000000000600052602260045260246000fd5b6000600282049050600182168061149057607f821691505b602082108114156114a4576114a3611449565b5b50919050565b7f4e487b7100000000000000000000000000000000000000000000000000000000600052601160045260246000fd5b60006114e482611225565b91506114ef83611225565b9250827fffffffffffffffffffffffffffffffffffffffffffffffffffffffffffffffff03821115611524576115236114aa565b5b828201905092915050565b7f4f776e61626c653a2063616c6c6572206973206e6f7420746865206f776e6572600082015250565b6000611565602083611112565b91506115708261152f565b602082019050919050565b6000602082019050818103600083015261159481611558565b9050919050565b7f45524332303a2064656372656173656420616c6c6f77616e63652062656c6f7760008201527f207a65726f000000000000000000000000000000000000000000000000000000602082015250565b60006115f7602583611112565b91506116028261159b565b604082019050919050565b60006020820190508181036000830152611626816115ea565b9050919050565b7f4f776e61626c653a206e6577206f776e657220697320746865207a65726f206160008201527f6464726573730000000000000000000000000000000000000000000000000000602082015250565b6000611689602683611112565b91506116948261162d565b604082019050919050565b600060208201905081810360008301526116b88161167c565b9050919050565b7f45524332303a20617070726f76652066726f6d20746865207a65726f2061646460008201527f7265737300000000000000000000000000000000000000000000000000000000602082015250565b600061171b602483611112565b9150611726826116bf565b604082019050919050565b6000602082019050818103600083015261174a8161170e565b9050919050565b7f45524332303a20617070726f766520746f20746865207a65726f20616464726560008201527f7373000000000000000000000000000000000000000000000000000000000000602082015250565b60006117ad602283611112565b91506117b882611751565b604082019050919050565b600060208201905081810360008301526117dc816117a0565b9050919050565b7f45524332303a20696e73756666696369656e7420616c6c6f77616e6365000000600082015250565b6000611819601d83611112565b9150611824826117e3565b602082019050919050565b600060208201905081810360008301526118488161180c565b9050919050565b7f45524332303a207472616e736665722066726f6d20746865207a65726f20616460008201527f6472657373000000000000000000000000000000000000000000000000000000602082015250565b60006118ab602583611112565b91506118b68261184f565b604082019050919050565b600060208201905081810360008301526118da8161189e565b9050919050565b7f45524332303a207472616e7366657220746f20746865207a65726f206164647260008201527f6573730000000000000000000000000000000000000000000000000000000000602082015250565b600061193d602383611112565b9150611948826118e1565b604082019050919050565b6000602082019050818103600083015261196c81611930565b9050919050565b7f45524332303a207472616e7366657220616d6f756e742065786365656473206260008201527f616c616e63650000000000000000000000000000000000000000000000000000602082015250565b60006119cf602683611112565b91506119da82611973565b604082019050919050565b600060208201905081810360008301526119fe816119c2565b9050919050565b7f45524332303a206275726e2066726f6d20746865207a65726f2061646472657360008201527f7300000000000000000000000000000000000000000000000000000000000000602082015250565b6000611a61602183611112565b9150611a6c82611a05565b604082019050919050565b60006020820190508181036000830152611a9081611a54565b9050919050565b7f45524332303a206275726e20616d6f756e7420657863656564732062616c616e60008201527f6365000000000000000000000000000000000000000000000000000000000000602082015250565b6000611af3602283611112565b9150611afe82611a97565b604082019050919050565b60006020820190508181036000830152611b2281611ae6565b9050919050565b6000611b3482611225565b9150611b3f83611225565b925082821015611b5257611b516114aa565b5b82820390509291505056fea2646970667358221220454f4c03f0a5964565d688dac684e74c7383b194889843000fb0eae0211ef5dd64736f6c63430008090033a26469706673582212206eb42689e68866781982b817e177e46c0900f3c2c555d3dd6432699df71af12a64736f6c63430008090033",
  "linkReferences": {},
  "deployedLinkReferences": {}
}